:020000040800F2
:10000000C8040020010100080F1000085F0F00085D
:100010000D1000089901000871130008000000008D
:1000200000000000000000000000000013100008A5
:100030009B010008000000001110000815100008C6
:100040001B0100081B0100081B0100081B01000820
:100050001B0100081B0100081B0100081B01000810
:100060001B0100081B0100081B0100081B01000800
:100070001B0100081B0100081B0100081B010008F0
:100080001B0100081B0100081B0100081B010008E0
:100090001B0100081B0100081B0100081B010008D0
:1000A0001B0100081B0100081B0100081B010008C0
:1000B0001B0100081B0100081B0100081B010008B0
:1000C0001B0100081B0100081B0100081B010008A0
:1000D0001B010008591300081B01000865130008E4
:1000E0001B0100081B0100081B010008DFF80CD0F1
:1000F00000F040F80048004741150008C8040020FF
:100100000648804706480047FEE7FEE7FEE7FEE7B1
:10011000FEE7FEE7FEE7FEE7FEE7FEE777100008F2
:10012000ED000008D2B201E000F8012B491EFBD21D
:1001300070470022F6E710B513460A4604461946F2
:10014000FFF7F0FF204610BD30B50B4601460020FA
:100150002022012409E021FA02F59D4205D303FA89
:1001600002F5491B04FA02F52844151EA2F101020A
:10017000F1DC30BD064C074D06E0E06840F00103BD
:1001800094E8070098471034AC42F6D3FFF7B2FF6B
:10019000D0160008F0160008FEE7704772B6FEE7BA
:1001A00010B590F821100022022905D004218163A6
:1001B00080F82020012010BD01680B6823F00E0399
:1001C0000B6001680B6823F001030B6090F840306E
:1001D000C46B012101FA03F3636080F8211080F8F9
:1001E0002020104610BD000010B590F8211000240A
:1001F000022903D00421816301243DE001680A68DB
:1002000022F00E020A6001680A6822F001020A6008
:100210001A4A0168914201D1012121E0174A1432A2
:10022000914201D110211BE0144A2832914201D1A0
:10023000891515E0114A3C32914201D189140FE031
:100240000E4A5032914202D14FF4803108E00B4AFD
:100250006432914202D14FF4801101E04FF080717D
:10026000064A083A5160012180F82110002180F8E7
:100270002010416B01B18847204610BD08000240A4
:1002800070B5044600F0FEF80546601C02D0044834
:100290000078044400F0F6F8401BA042FAD370BD89
:1002A000040000202DE9F84FDFF8B8910024A9F1EF
:1002B000040B23460F2709F1040AABF1040EC9E031
:1002C0000125A5402A40AA427DD1674ED1F804C03D
:1002D000ACEB0608B44532D014DCBCF1030F3AD0C5
:1002E00009DCBCF1000F2AD0BCF1010F1CD0BCF11D
:1002F000020F31D11DE0BCF1110F17D0BCF1120F6C
:100300002AD119E0B8F5881F19D006DCB8F5803F6E
:1003100015D0B8F5801F1FD111E0B8F5001F0ED021
:10032000B8F5041F18D10AE0CB6815E0CB681B1D97
:1003300012E0CB6808330FE0CB680C330CE08B681D
:100340002BB1012B4FF0080303D0456104E00423D7
:1003500002E0056100E00023FF2A01D8064601E023
:1003600000F104064FEA840501D9A5F12005D6F86D
:10037000008007FA05FC28EA0C0803FA05F548EAAC
:100380000508C6F800804D68ED0062D5374DAE69AE
:1003900046F00106AE61AD6924F0030605F00105E3
:1003A0000095334D06EB050CDCF80850A607360F18
:1003B00007FA06F825EA0805DFF8B880404503D1BA
:1003C0004FF0000817E044E0DFF8AC80404502D170
:1003D0004FF001080FE0DFF8A480404502D14FF054
:1003E000020808E0DFF89880404502D14FF003088A
:1003F00001E04FF0040808FA06F848EA0508CCF8CE
:1004000008804D68D9F80060ED024D4601D51643CD
:1004100000E096432E604D68DAF80060AD02554664
:1004200001D5164300E096432E604D68DBF800606E
:10043000AD035D4601D5164300E096432E604D683E
:10044000DEF80060ED03754601D5164300E09643E3
:100450002E60641C0D682A46E5407FF431AFBDE88C
:10046000F88F000008040140000011100010024045
:100470000000014000080140000C01400010014054
:10048000001401400148806870470000040000200B
:10049000024881680278114481607047040000209E
:1004A000074810B5016841F010010160032000F019
:1004B00075F80F2000F006F800F024F8002010BDB9
:1004C0000020024070B50D4D04464FF47A71287833
:1004D000B1FBF0F00A490968B1FBF0F000F0DCFA7A
:1004E00048B9102C07D200222146501E00F036F8E1
:1004F00000206C6070BD012070BD00000400002071
:10050000100000200C4808B5816941F001018161AB
:10051000816901F001010091C16941F08051C1611F
:10052000C06900F0805000900448416821F0E0610B
:1005300041F00071416008BD001002400000014020
:10054000002809DB00F01F020121914040098000D2
:1005500000F1E020C0F8001170470000F0B40E4B2D
:100560001B680C46C3F30223C3F10705042D00D911
:100570000425191D072901D2002300E0DB1E0126F6
:1005800006FA05F1491E214099409E40761E16400C
:100590003143F0BC00F0FEBE0CED00E0064900F077
:1005A000070208684FF6FF03184040EA0220034A9A
:1005B00010430860704700000CED00E00000FA05F1
:1005C0002DE9F0470F46050061D0434E306800F03A
:1005D0000700B84209D2306820F007003843306085
:1005E000306800F00700B84251D128683B4C8107C1
:1005F00012D5400703D5606840F4E0606060287859
:10060000000703D5606840F4605060606068A968C6
:1006100020F0F000084360602878C00728D06868A0
:10062000012810D02168022810D0890700292EDA6D
:10063000616821F0030101436160FFF723FF8046F9
:1006400041F288390DE021688903EFE78901EDE780
:10065000FFF718FFA0EB0801494502D90320BDE8C8
:10066000F0876068696800F00C00B0EB810FEFD193
:10067000306800F00700B8420BD9306820F007005E
:1006800038433060306800F00700B84201D00120E4
:10069000E5E72878400705D56068E96820F4E06060
:1006A000084360602878000706D56068296920F44F
:1006B000605040EAC100606000F038F86168084AA4
:1006C000C1F30311515CC840064908600648006840
:1006D000FFF7F8FE0020C2E70020024000100240B1
:1006E000B616000810000020080000200448054944
:1006F00000684968044AC1F30221515CC840704750
:100700001000002000100240C616000804480549E9
:1007100000684968044AC1F3C221515CC84070476F
:100720001000002000100240C61600080E4A516852
:100730000E4801F00C03042B11D0082B0FD10C48EC
:10074000C1F38343C903C05C0AD55168084AC1F3A9
:100750004041921E515C054A5043B0FBF1F0704796
:1007600004494843704700000010024000127A001C
:10077000A616000800093D002DE9F84F040070D0CE
:100780002078C04DC00749D06868C0F381000128B7
:1007900007D06868C0F38100022809D16868C003E7
:1007A00006D52868800339D560680028E7D035E091
:1007B0006068B0F5803F0BD010B1B0F5A02F11D01C
:1007C000286820F480302860286820F4802002E027
:1007D000286840F480302860606890B1FFF752FECE
:1007E00006460AE0286840F480202860F0E700BF51
:1007F000FFF748FE801B642873D828688003F7D56C
:100800000CE0FFF73FFE064605E000BFFFF73AFEAB
:10081000801B6428F0D828688003F7D420789A4E8B
:1008200080074FF001094FF0000839D5686810F0D3
:100830000C0F07D06868C0F38100022809D16868EE
:10084000C00306D42868800714D52069012808D180
:1008500010E02069B0B1C6F80090FFF713FE07461C
:1008600005E00AE1FFF70EFEC01B0228C4D8286885
:100870008007F7D52868616920F0F80040EAC100D8
:1008800028600DE0C6F80080FFF7FCFD074604E095
:10089000FFF7F8FDC01B022823D828688007F7D48B
:1008A000207800072CD57948A169D9B1C0F800900B
:1008B000FFF7E8FD074604E0FFF7E4FDC01B022850
:1008C0000FD8686A8007F7D571484FF4FA5100686D
:1008D000B0FBF1F0009000BF0098411E0091FAD2E9
:1008E0000EE080E0C0F80080FFF7CCFD074604E092
:1008F000FFF7C8FDC01B022875D8686A8007F7D4C7
:100900002078400760D5E8690027C00008D4E8696E
:1009100040F08050E861E869012700F080500090C5
:100920005C480168C90513D40168834641F48071AD
:100930000160FFF7A7FD824606E000BFFFF7A2FDBA
:10094000A0EB0A0064284ED8DBF80000C005F5D5FE
:10095000E06801280AD008B1052813D0286A20F0E1
:1009600001002862286A20F0040002E0286A40F0B2
:1009700001002862E06841F2883B98B1FFF782FDF0
:1009800082460BE0286A40F004002862EEE700BFD0
:10099000FFF778FDA0EB0A0159455AD8286A80076D
:1009A000F6D50CE0FFF76EFD824605E0FFF76AFD25
:1009B000A0EB0A0159454CD8286A8007F6D41FB12C
:1009C000E86920F08050E861E06988B36968C1F3A4
:1009D0008101022944D00228C6F8608004D0FFF7C4
:1009E00051FD044638E034E0FFF74CFD074604E0D3
:1009F000FFF748FDC01B02282BD828688001F7D4D8
:100A0000206AB0F5803F05D16868A16820F4003005
:100A100008436860D4E908010843696821F4741147
:100A200008436860C6F86090FFF72CFD044606E0B6
:100A300025E000BFFFF726FD001B022809D8286823
:100A40008001F7D51BE000BFFFF71CFD001B02284B
:100A500002D90320BDE8F88F28688001F4D40EE0A5
:100A60000128F7D06868226A00F48031914204D1ED
:100A7000616A00F47010884201D00120EAE700208A
:100A8000E8E70000001002400000424280044242B9
:100A9000100000200070004010B5401EB0F1807FB3
:100AA00001D3012010BD4FF0E02460610F216017D9
:100AB00000F070FC0020A06107202061002010BD24
:100AC00070477047F8B5016804460868CA684B6902
:100AD00010F00F0F4FF0000559D003F0010602F49B
:100AE0009077374365D0C10705D0D10503D5616C38
:100AF00041F001016164410705D5D90703D0616C5C
:100B000041F002016164810705D5D90703D0616C0A
:100B100041F004016164010707D502F0200131436F
:100B200003D0616C41F008016164616C00293AD026
:100B3000800604D5900602D5204600F0FCFA206815
:100B40004069616CC0F38010090700D460B320468F
:100B500000F0CAFA20684069400621D520681430A8
:100B600050E8001F21F0400140E80012002AF5D1B2
:100B7000E06BA8B16D494163E06BFFF735FB0028DE
:100B800011D0E06B416B01B0BDE8F040084783062F
:100B90000FD593060DD52046BDE8F84000F0CBBA3E
:100BA0002046FFF78EFFF8BD2046FFF78AFF6564F9
:100BB000F8BD266B2023012E7CD1C6067AD5D60639
:100BC00078D508684868009048694FF002064006EA
:100BD00040D5E16B086840680004000CE8D0A28DA5
:100BE0008242E5D9E085886920282DD020680C3024
:100BF00050E8001F21F4807140E80012002AF5D16E
:100C00002068143050E8001F21F0010140E8001274
:100C1000002AF5D12068143050E8001F21F040016F
:100C200040E80012002AF5D184F84230256320689C
:100C30000C3050E8001F21F0100140E80012002A9B
:100C4000F5D1E06BFFF7ACFA6663A08DE18D401A39
:100C500081B22AE0A08DE18D401A81B2E08D00289A
:100C6000A6D00029A4D022680C3252E8000F20F44C
:100C7000907042E80007002FF5D12068143050E84A
:100C8000002F22F0010240E80027002FF5D184F860
:100C90004230256320680C3050E8002F22F010020B
:100CA00040E80023002BF5D166632046FFF708FFDC
:100CB000F8BDFFE705062BD5150629D594F84100A8
:100CC0002128F5D1A068B0F5805F01D12069B0B1CD
:100CD000206A411C2162216800784860E08C401E37
:100CE0000004000CE084E3D12068C16821F0800199
:100CF000C1602068C16841F04001C160D8E7206A46
:100D00000088C0F308004860206A801C2062E5E784
:100D10004006CDD55006CBD5CA68204622F0400209
:100D2000CA6084F8413000F019F9C1E7D910000811
:100D300070B5040004D094F84100002510B106E01D
:100D4000012070BD84F84050204600F023F8242094
:100D500084F841002068C16821F40051C160204638
:100D600000F04AFA2068016921F49041016120688D
:100D7000416921F02A0141612068C16841F40051B4
:100D8000C1606564202084F8410084F842006563F6
:100D9000002070BD70B586B00024009401940294C8
:100DA000039403682E482D4E022103220515B342F9
:100DB00026D1836943F480438361836903F48043CC
:100DC0000493836943F0040383618069254E00F036
:100DD000040004900802CDE9000103926946304600
:100DE000FFF760FACDE90054694630460294FFF7F8
:100DF00059FA002211462520FFF7B0FB252028E0F4
:100E0000194EB34227D1C36943F48023C361C36938
:100E100003F480230493836943F0080383618069AA
:100E2000CDE9005100F00800CDE903200F4D6946DF
:100E30002846FFF737FAE814CDE90004694628464A
:100E40000294FFF72FFA002211462720FFF786FBB6
:100E50002720FFF775FB06B070BD00000038014089
:100E6000001002400008014000480040000C014012
:100E700090F84230202B01D00220704721B11AB1E6
:100E80000023036300F014BA0120704710B5006816
:100E9000074988420AD10748007800F0EDF8BDE81C
:100EA0001040012203490448FFF7E2BF10BD0000D3
:100EB0000048004000000020800000202DE9F84399
:100EC000044690F84100984616460D46202802D068
:100ED0000220BDE8F88385B17EB100206064212046
:100EE00084F84100FFF7CEFAA6848146E684A06824
:100EF0002027B0F5805F02D003E00120E9E72069F8
:100F000010B12E4600250EE000260CE08021204680
:100F100000F0E9F9A8B9C6B116F8010B21684860DC
:100F2000E08C401EE084E08C4B464FF00002CDF890
:100F300000800028EAD14FF04001204600F0D3F9AC
:100F400040B184F841700320C3E735F8020BC0F3C9
:100F50000800E3E784F841700020BAE77047FEE735
:100F60000D4808B5816941F020018161816901F076
:100F700020010091816941F008018161816901F0DE
:100F800008010091816941F004018161806900F0EC
:100F90000400009008BD0000001002400C4810B58D
:100FA0000A4901604FF4E1314160002181600C2267
:100FB000C160C0E904128161C161FFF7B9FE002878
:100FC00003D0BDE81040FFF7E9B810BD003801407C
:100FD000380000200C4810B50A4901604FF4E13197
:100FE0004160002181600C22C160C0E9041281616E
:100FF000C161FFF79DFE002803D0BDE81040FFF758
:10100000CDB810BD0048004080000020FEE7FEE79C
:1010100070477047FFF73CBA30B58FB0282168465B
:10102000FFF787F814210AA8FFF783F801210804C5
:10103000CDE900100024029402250491CDE9075067
:101040004FF4E01009906846FFF796FB08B172B6BE
:10105000FEE70F20CDE90A054FF48060CDE90C4092
:1010600002210AA80E94FFF7ABFA002801D072B64D
:10107000FEE70FB030BD704710B5164C217805293A
:101080000CD2DFE801F003070E111C00AA2805D1DD
:10109000012002E0552802D00020207010BD02205F
:1010A000FBE760700320F8E70A4AA178521D50540C
:1010B000491CC8B2A0700428F0D30420EDE75D28D5
:1010C00004D104486178401D00F0B6FA0020207079
:1010D000A07010BD1400002010B5406A0021C18529
:1010E000C184FFF7EEFC10BD01680C3151E8002F00
:1010F00022F4907241E80023002BF5D101681431ED
:1011000051E8002F22F0010241E80023002BF5D125
:10111000016B012909D101680C3151E8002F22F03F
:10112000100241E80023002BF5D1202180F8421065
:1011300000210163704708B590F84210222901D0C0
:10114000022008BD82684FF480539A4201D10169A0
:1011500021B1816A9A421BD04AB10AE00268816AD1
:101160005268C2F308020A80816A891C08E0026999
:1011700072B10268526802F07F020A70816A491CEB
:101180008162C18D491E0904090CC18503D01BE091
:1011900002685268F1E70168CA6822F02002CA605A
:1011A0000168CA6822F48072CA6001684A6922F044
:1011B00001024A61202180F8421000214163026B44
:1011C000012A03D0FFF762FE002008BD0163016819
:1011D0000C3151E8002F22F0100241E80023002BCF
:1011E000F5D101680A68D20602D50A6849680091FB
:1011F000818DFFF765FCE7E770B50446006801697B
:10120000E26821F44051114301612169A06808435B
:10121000616908432168CA6841F20C639A4302433A
:10122000CA6020684169A26921F44071114341619B
:101230001E492068884202D1FFF768FA01E0FFF7F3
:1012400055FA00EBC00101EB0012606864218000D8
:10125000B2FBF0F3B3FBF1F36FF018067343B2FB8C
:10126000F0F5B2FBF0F605EB8305322303EB051531
:10127000B5FBF1F5B6FBF1F605F0F00505EB06154B
:10128000B2FBF0F6B2FBF0F0B0FBF1F06FF0180239
:10129000504306EB800003EB0010B0FBF1F0216837
:1012A00000F00F002844886070BD00000038014045
:1012B00081628285C28500214164222180F842102A
:1012C000016921B10168CA6842F48072CA6001688C
:1012D0004A6942F001024A610068C16841F0200198
:1012E000C160002070472DE9F843984617460D4627
:1012F0000446089E24E0701C22D0FFF7C3F8A0EB40
:101300000800B0421AD8CEB12068C168490717D585
:10131000802D15D0402D13D00168C94309070FD483
:1013200001680025406800902046FFF7DDFE082098
:10133000606484F840500120BDE8F8830320FBE797
:101340002068006835EA000004D00020B842D2D0FE
:101350000020F1E70120F9E70148FFF7B3BB0000E7
:10136000380000200148FFF7ADBB000080000020DE
:10137000FEE700000FB4054B10B503A9044A02981C
:1013800000F028F810BC5DF814FB000029150008D7
:10139000340000200907090E002804DB00F1E020DA
:1013A00080F80014704700F00F0000F1E02080F892
:1013B000141D704702E008C8121F08C1002AFAD1A4
:1013C00070477047002001E001C1121F002AFBD1C5
:1013D000704700002DE9FF4F89B09B460446002569
:1013E00006E025280BD05A460B999047641C6D1CCB
:1013F00020780028F5D10DB02846BDE8F08F0027F1
:10140000B8460122474900E0074314F8013F203B5A
:1014100002FA03F00842F7D120782E2819D114F8E7
:10142000010F47F004072A280ED06FF02F02207812
:10143000A0F1300109290CD808EB880102EB410129
:1014400000EB0108641CF2E70A98641C50F8048B56
:101450000A9020780028CED0642808D0692806D0C9
:1014600075281ED05A460B9990476D1C58E00A9972
:101470004FF00A0901C90A91002802DA40422D21E1
:1014800002E0390504D52B218DF82010012103E05D
:10149000F90704D02021F7E78A4608AE0DE00021C5
:1014A000FAE70A994FF00A0901C90A91F7E7494694
:1014B000FEF74AFE303106F8011D0028F7D1ADEBEA
:1014C000060000F12009780701D44FF00108C84553
:1014D00002DDA8EB090000E000208046002706E0BE
:1014E00008A85A46C05D0B9990476D1C7F1C574554
:1014F000F6DB04E030205A460B9990476D1CB8F19A
:101500000001A8F10108F5DC05E016F8010B5A46C8
:101510000B9990476D1CB9F10001A9F10109F4DCA8
:10152000641C65E70928010013B54FF6FF7301221B
:1015300069460248FFF7C2FC00981CBD3800002035
:1015400008B5FEF7ADFFFFF767FDFFF709FDFFF7F1
:1015500025FDFFF73FFD01221B491C48FFF788FCD2
:101560001B4E1C4D1C4C4FF4FA773088503800EB62
:10157000D07040F34F0170883C3800EBD07040F3DE
:101580004F02481D0A2800D80021501D0A2800D803
:10159000002212A0FFF7EEFEB5F90430B5F90220E3
:1015A000B5F9001013A0FFF7E5FEE0880090A388CE
:1015B0006288218815A0FFF7DDFE1EA0FFF7DAFE86
:1015C0003846FEF75DFED0E70000002080000020D6
:1015D000240000201E0000202C0000206D6F766586
:1015E0005F783A20256420206D6F76655F793A2018
:1015F00025640A00783A2025642020793A20256461
:101600002020683A2025640A00000000616E676CA3
:101610006520303A202564202039303A2025642086
:10162000203138303A20256420203237303A2025C6
:10163000640A00000A0A0A00194A10B502F10E03F2
:10164000082908D2DFE801F0070408070F161D2457
:10165000008840BA908010BD018849BA1180408846
:1016600040BA508010BD0E490278C91F0A704078F8
:10167000487010BD0A490278891D0A804078488068
:1016800010BD018849BA1980408840BA588010BD01
:10169000018849BA9980408840BAD88010BD0000BE
:1016A0001E000020010202030405060708090A0BB8
:1016B0000C0D0E0F101000000000000000000102D1
:1016C00003040607080900000000010203040000EB
:1016D000F01600080000002038000000B4130008D5
:1016E000281700083800002090040000C4130008E8
:1016F00000000000010000001000000000000000D9
:1017000000127A000000000000000000000000004D
:101710000000000050003C0000000000000000003D
:081720000000000000000000C1
:04000005080000ED02
:00000001FF
