:020000040800F2
:10000000A807002089010008130E0008310D000820
:10001000110E0008F30200080D1100080000000096
:10002000000000000000000000000000170E0008A3
:10003000F502000800000000150E0008190E000867
:10004000A3010008A3010008A3010008A301000800
:10005000A3010008A3010008A3010008A3010008F0
:10006000A3010008A3010008A3010008A3010008E0
:10007000A3010008A3010008A3010008A3010008D0
:10008000A3010008A3010008A3010008A3010008C0
:10009000A3010008A3010008A3010008A3010008B0
:1000A000A3010008A3010008A3010008A3010008A0
:1000B000A3010008A3010008A3010008A301000890
:1000C000A3010008A3010008A3010008A301000880
:1000D000A3010008F90F0008A30100085910000847
:1000E000A3010008A3010008A301000800F002F822
:1000F00000F03AF80AA090E8000C82448344AAF188
:100100000107DA4501D100F02FF8AFF2090EBAE885
:100110000F0013F0010F18BFFB1A43F0010318473B
:100120002812000048120000103A24BF78C878C195
:10013000FAD8520724BF30C830C144BF04680C60ED
:10014000704700000023002400250026103A28BF35
:1001500078C1FBD8520728BF30C148BF0B60704739
:100160001FB51FBD10B510BD00F08AF81146FFF78E
:10017000F7FF01F0ABF800F0A8F803B4FFF7F2FFC7
:1001800003BC00F0AFF80000094880470948004769
:10019000FEE7FEE7FEE7FEE7FEE7FEE7FEE7FEE737
:1001A000FEE7FEE704480549054A064B7047000094
:1001B0007B0E0008ED000008A8010020A807002021
:1001C000A8030020A803002010B5203AC0F00B803F
:1001D000B1E81850203AA0E81850B1E81850A0E84B
:1001E0001850BFF4F5AF5FEA027C24BFB1E81850A5
:1001F000A0E8185044BF18C918C0BDE810405FEA15
:10020000827C24BF51F8043B40F8043B08BF704790
:10021000D20728BF31F8023B48BF11F8012B28BF95
:1002200020F8023B48BF00F8012B70474FF0000256
:1002300000B5134694469646203922BFA0E80C50DC
:10024000A0E80C50B1F12001BFF4F7AF090728BFB7
:10025000A0E80C5048BF0CC05DF804EB890028BF33
:1002600040F8042B08BF704748BF20F8022B11F05C
:10027000804F18BF00F8012B7047704770477047D8
:10028000754600F02BF8AE4605006946534620F04F
:100290000700854618B020B5FFF784FFBDE8204071
:1002A0004FF000064FF000074FF000084FF0000B32
:1002B00021F00701AC46ACE8C009ACE8C009ACE8E5
:1002C000C009ACE8C0098D46704710B50446AFF3CD
:1002D00000802046BDE81040FFF74FBF0048704740
:1002E0004401002001491820ABBEFEE726000200B1
:1002F0007047FEE7704772B6FEE7000070B504462F
:1003000000F008F90546601C02D004480078044457
:1003100000F000F9401BA042FAD370BD2400002079
:100320002DE9F84FDFF8B8910024A9F1040B23461A
:100330000F2709F1040AABF1040EC9E00125A5401D
:100340002A40AA427DD1674ED1F804C0ACEB060822
:10035000B44532D014DCBCF1030F3AD009DCBCF157
:10036000000F2AD0BCF1010F1CD0BCF1020F31D11B
:100370001DE0BCF1110F17D0BCF1120F2AD119E00A
:10038000B8F5881F19D006DCB8F5803F15D0B8F550
:10039000801F1FD111E0B8F5001F0ED0B8F5041F63
:1003A00018D10AE0CB6815E0CB681B1D12E0CB68C2
:1003B00008330FE0CB680C330CE08B682BB1012BBA
:1003C0004FF0080303D0456104E0042302E0056117
:1003D00000E00023FF2A01D8064601E000F10406F0
:1003E0004FEA840501D9A5F12005D6F8008007FA67
:1003F00005FC28EA0C0803FA05F548EA0508C6F8E2
:1004000000804D68ED0062D5374DAE6946F00106BB
:10041000AE61AD6924F0030605F001050095334D8A
:1004200006EB050CDCF80850A607360F07FA06F8AD
:1004300025EA0805DFF8B880404503D14FF00008F1
:1004400017E044E0DFF8AC80404502D14FF00108EE
:100450000FE0DFF8A480404502D14FF0020808E029
:10046000DFF89880404502D14FF0030801E04FF0DB
:10047000040808FA06F848EA0508CCF808804D6830
:10048000D9F80060ED024D4601D5164300E09643D1
:100490002E604D68DAF80060AD02554601D516436E
:1004A00000E096432E604D68DBF80060AD035D46CA
:1004B00001D5164300E096432E604D68DEF80060DB
:1004C000ED03754601D5164300E096432E60641C8B
:1004D0000D682A46E5407FF431AFBDE8F88F000093
:1004E000080401400000111000100240000001400B
:1004F00000080140000C01400010014000140140C0
:100500008068084000D0012070470AB1016170473F
:100510000904FBE7014880687047000024000020C0
:1005200002488168027811448160704724000020ED
:10053000074810B5016841F010010160032000F088
:1005400075F80F2000F006F800F024F8002010BD28
:100550000020024070B50D4D04464FF47A712878A2
:10056000B1FBF0F00A490968B1FBF0F000F0DCFAE9
:1005700048B9102C07D200222146501E00F036F850
:1005800000206C6070BD012070BD000024000020C0
:10059000300000200C4808B5816941F001018161FB
:1005A000816901F001010091C16941F08051C1618F
:1005B000C06900F0805000900448416821F0E0617B
:1005C00041F00071416008BD001002400000014090
:1005D000002809DB00F01F02012191404009800042
:1005E00000F1E020C0F8001170470000F0B40E4B9D
:1005F0001B680C46C3F30223C3F10705042D00D981
:100600000425191D072901D2002300E0DB1E012665
:1006100006FA05F1491E214099409E40761E16407B
:100620003143F0BC00F073BD0CED00E0064900F072
:10063000070208684FF6FF03184040EA0220034A09
:1006400010430860704700000CED00E00000FA0560
:100650002DE9F0470F46050061D0434E306800F0A9
:100660000700B84209D2306820F0070038433060F4
:10067000306800F00700B84251D128683B4C810730
:1006800012D5400703D5606840F4E06060602878C8
:10069000000703D5606840F4605060606068A96836
:1006A00020F0F000084360602878C00728D0686810
:1006B000012810D02168022810D0890700292EDADD
:1006C000616821F0030101436160FFF723FF804669
:1006D00041F288390DE021688903EFE78901EDE7F0
:1006E000FFF718FFA0EB0801494502D90320BDE838
:1006F000F0876068696800F00C00B0EB810FEFD103
:10070000306800F00700B8420BD9306820F00700CD
:1007100038433060306800F00700B84201D0012053
:10072000E5E72878400705D56068E96820F4E060CF
:10073000084360602878000706D56068296920F4BE
:10074000605040EAC100606000F038F86168084A13
:10075000C1F30311515CC8400649086006480068AF
:10076000FFF7F8FE0020C2E7002002400010024020
:100770002E130008300000202800002004480549FE
:1007800000684968044AC1F30221515CC8407047BF
:1007900030000020001002403E13000804480549C4
:1007A00000684968044AC1F3C221515CC8407047DF
:1007B00030000020001002403E1300080E4A51682D
:1007C0000E4801F00C03042B11D0082B0FD10C485C
:1007D000C1F38343C903C05C0AD55168084AC1F319
:1007E0004041921E515C054A5043B0FBF1F0704706
:1007F00004494843704700000010024000127A008C
:100800001E13000800093D002DE9F84F040070D0C8
:100810002078C04DC00749D06868C0F38100012826
:1008200007D06868C0F38100022809D16868C00356
:1008300006D52868800339D560680028E7D035E000
:100840006068B0F5803F0BD010B1B0F5A02F11D08B
:10085000286820F480302860286820F4802002E096
:10086000286840F480302860606890B1FFF752FE3D
:1008700006460AE0286840F480202860F0E700BFC0
:10088000FFF748FE801B642873D828688003F7D5DB
:100890000CE0FFF73FFE064605E000BFFFF73AFE1B
:1008A000801B6428F0D828688003F7D420789A4EFB
:1008B00080074FF001094FF0000839D5686810F043
:1008C0000C0F07D06868C0F38100022809D168685E
:1008D000C00306D42868800714D52069012808D1F0
:1008E00010E02069B0B1C6F80090FFF713FE07468C
:1008F00005E00AE1FFF70EFEC01B0228C4D82868F5
:100900008007F7D52868616920F0F80040EAC10047
:1009100028600DE0C6F80080FFF7FCFD074604E004
:10092000FFF7F8FDC01B022823D828688007F7D4FA
:10093000207800072CD57948A169D9B1C0F800907A
:10094000FFF7E8FD074604E0FFF7E4FDC01B0228BF
:100950000FD8686A8007F7D571484FF4FA510068DC
:10096000B0FBF1F0009000BF0098411E0091FAD258
:100970000EE080E0C0F80080FFF7CCFD074604E001
:10098000FFF7C8FDC01B022875D8686A8007F7D436
:100990002078400760D5E8690027C00008D4E869DE
:1009A00040F08050E861E869012700F08050009035
:1009B0005C480168C90513D40168834641F480711D
:1009C0000160FFF7A7FD824606E000BFFFF7A2FD2A
:1009D000A0EB0A0064284ED8DBF80000C005F5D56E
:1009E000E06801280AD008B1052813D0286A20F051
:1009F00001002862286A20F0040002E0286A40F022
:100A000001002862E06841F2883B98B1FFF782FD5F
:100A100082460BE0286A40F004002862EEE700BF3F
:100A2000FFF778FDA0EB0A0159455AD8286A8007DC
:100A3000F6D50CE0FFF76EFD824605E0FFF76AFD94
:100A4000A0EB0A0159454CD8286A8007F6D41FB19B
:100A5000E86920F08050E861E06988B36968C1F313
:100A60008101022944D00228C6F8608004D0FFF733
:100A700051FD044638E034E0FFF74CFD074604E042
:100A8000FFF748FDC01B02282BD828688001F7D447
:100A9000206AB0F5803F05D16868A16820F4003075
:100AA00008436860D4E908010843696821F47411B7
:100AB00008436860C6F86090FFF72CFD044606E026
:100AC00025E000BFFFF726FD001B022809D8286893
:100AD0008001F7D51BE000BFFFF71CFD001B0228BB
:100AE00002D90320BDE8F88F28688001F4D40EE015
:100AF0000128F7D06868226A00F48031914204D15D
:100B0000616A00F47010884201D00120EAE70020F9
:100B1000E8E7000000100240000042428004424228
:100B2000300000200070004010B5401EB0F1807F02
:100B300001D3012010BD4FF0E02460610F21601748
:100B400000F0E5FA0020A06107202061002010BD20
:100B500070B5040004D094F84100002510B106E0FF
:100B6000012070BD84F84050204600F023F8242076
:100B700084F841002068C16821F40051C16020461A
:100B800000F0A4F92068016921F490410161206816
:100B9000416921F02A0141612068C16841F4005196
:100BA000C1606564202084F8410084F842006563D8
:100BB000002070BD70B586B00024009401940294AA
:100BC000039403682E482D4E022103220515B342DB
:100BD00026D1836943F480438361836903F48043AE
:100BE0000493836943F0040383618069254E00F018
:100BF000040004900802CDE90001039269463046E2
:100C0000FFF78EFBCDE90054694630460294FFF7AA
:100C100087FB002211462520FFF7E8FC252028E06D
:100C2000194EB34227D1C36943F48023C361C3691A
:100C300003F480230493836943F00803836180698C
:100C4000CDE9005100F00800CDE903200F4D6946C1
:100C50002846FFF765FBE814CDE9000469462846FD
:100C60000294FFF75DFB002211462720FFF7BEFC30
:100C70002720FFF7ADFC06B070BD00000038014032
:100C8000001002400008014000480040000C0140F4
:100C90002DE9F843044690F84100984616460D4663
:100CA000202802D00220BDE8F88385B17EB1002063
:100CB0006064212084F84100FFF72CFCA684814663
:100CC000E684A0682027B0F5805F02D003E0012011
:100CD000E9E7206910B12E4600250EE000260CE061
:100CE0008021204600F04EF9A8B9C6B116F8010BD4
:100CF00021684860E08C401EE084E08C4B464FF059
:100D00000002CDF800800028EAD14FF040012046D3
:100D100000F038F940B184F841700320C3E735F89A
:100D2000020BC0F30800E3E784F841700020BAE743
:100D3000FEE7000030B585B0002417480094019408
:100D400002940394816941F020018161816901F07D
:100D500020010491816941F004018161816901F000
:100D600004010491816941F00801816180690B4DA2
:100D700000F008000490002202212846FFF7C5FB7E
:100D800002210120CDE90010CDE902416946284643
:100D9000FFF7C6FA05B030BD001002400008014060
:100DA0000C4810B50A4901604FF4E131416000215F
:100DB00081600C22C160C0E904128161C161FFF74A
:100DC000C7FE002803D0BDE81040FFF794BA10BD5D
:100DD00000380140340000200C4810B50A49016079
:100DE0004FF4E1314160002181600C22C160C0E913
:100DF00004128161C161FFF7ABFE002803D0BDE89A
:100E00001040FFF778BA10BD004800407C00002079
:100E1000FEE7FEE770477047FFF782BB30B58FB043
:100E200028216846FFF702FA14210AA8FFF7FEF905
:100E300001210804CDE90010002402940225049148
:100E4000CDE907504FF4E01009906846FFF7DCFC4D
:100E500008B172B6FEE70F20CDE90A054FF48060B5
:100E6000CDE90C4002210AA80E94FFF7F1FB0028FF
:100E700001D072B6FEE70FB030BD704701680C318B
:100E800051E8002F22F4907241E80023002BF5D1A5
:100E90000168143151E8002F22F0010241E80023DB
:100EA000002BF5D1016B012909D101680C3151E802
:100EB000002F22F0100241E80023002BF5D1202161
:100EC00080F84210002101637047000070B50446AD
:100ED00000680169E26821F4405111430161216910
:100EE000A0680843616908432168CA6841F20C633D
:100EF0009A430243CA6020684169A26921F44071A3
:100F0000114341611E492068884202D1FFF746FC27
:100F100001E0FFF733FC00EBC00101EB0012606859
:100F200064218000B2FBF0F3B3FBF1F36FF018061D
:100F30007343B2FBF0F5B2FBF0F605EB8305322309
:100F400003EB0515B5FBF1F5B6FBF1F605F0F00581
:100F500005EB0615B2FBF0F6B2FBF0F0B0FBF1F0DA
:100F60006FF01802504306EB800003EB0010B0FB5B
:100F7000F1F0216800F00F002844886070BD000087
:100F8000003801402DE9F843984617460D460446BF
:100F9000089E24E0701C22D0FFF7BCFAA0EB0800EA
:100FA000B0421AD8CEB12068C168490717D5802D44
:100FB00015D0402D13D00168C94309070FD401682B
:100FC0000025406800902046FFF758FF0820606425
:100FD00084F840500120BDE8F8830320FBE7206837
:100FE000006835EA000004D00020B842D2D00020CA
:100FF000F1E70120F9E7000038B5134800680168FF
:10100000124C134D890609D540688DF800009DF8F3
:10101000001020682954401C206038BD0168C906B2
:10102000FBD540688DF800006423802208490948F8
:10103000FFF72EFE00200146226801E02954401CE3
:101040009042FBDD216038BD34000020000000200C
:10105000C40000207C000020F8B5274E30680168ED
:10106000264C274D890609D540688DF800009DF86B
:10107000001020682954401C2060F8BD0068C0069C
:10108000FBD5012202211F48FFF73FFA3068406874
:101090008DF800001A4800F039F921680D224FF050
:1010A00064036A54491C0A226A54491C21600128BD
:1010B0004FF00F0216D0114913311348FFF7E8FD26
:1010C000002642F2107000960099491C009181425E
:1010D000FADB642380220A490B48FFF7D9FD002080
:1010E000216804E00549091DE7E72E54401C8842A9
:1010F000FBDD2660F8BD00007C0000200000002021
:10110000C40000200008014034000020FEE7090769
:10111000090E002804DB00F1E02080F8001470477D
:1011200000F00F0000F1E02080F8141D704700006F
:1011300010B5A4B0012202213E48FFF7E6F93E496E
:101140000868C26842F02002C2600868C16841F0C5
:101150001001C16039490868C26842F02002C260CB
:101160000868C16841F01001C16035A212AC0FCA15
:1011700084E80F0036A11EAB07C983E807002022D0
:1011800036A10AA8FFF720F83CA116AC0FC984E8E5
:101190000F0028223DA16846FFF716F845A31AACB8
:1011A0000FCB84E80F0047A16423D1E90001CDE90A
:1011B00021010E2212A92048FFF76AFD4FF47A742C
:1011C0002046FFF79BF8642309221EA91A48FFF75F
:1011D0005FFD2046FFF792F8642320220AA91648F3
:1011E000FFF756FD2046FFF789F864230E2216A963
:1011F0001148FFF74DFD40F6B830FFF77FF8642344
:10120000272269460C48FFF743FD41F28830FFF77B
:1012100075F864230F221AA90748FFF739FD204605
:10122000FFF76CF86423072221A90348FFF730FD7C
:1012300024B010BD00080140340000207C000020D4
:1012400041542B43574D4F44453D310D0A0000009A
:1012500041542B5253540D0A0000000041542B43BB
:10126000574A41503D2265737038323636222C225F
:101270003636363636363636220D0A0041542B4382
:1012800049504D55583D300D0A00000041542B4344
:10129000495053544152543D22544350222C223140
:1012A00039322E3136382E342E31222C3830383621
:1012B0000D0A000041542B43495053454E443D34E0
:1012C0000D0A00006F6B6F6B0D0A0000FFF730F91D
:1012D000FFF7A4FDFFF72EFDFFF762FDFFF77CFD92
:1012E000FFF726FF084C4FF47A7502212046FFF7DE
:1012F00007F90128F9D12846FFF700F8002202215A
:101300002046FFF702F9F0E7000801404078303846
:10131000092801D80220704701207047010202030A
:101320000405060708090A0B0C0D0E0F101000002B
:101330000000000000000102030406070809000085
:1013400000000102030400006813000800000020F0
:1013500034000000280100089C130008340000201D
:1013600074070000440100080000000041542B43B2
:10137000495053454E443D330D0A0041542B4349D7
:101380005053454E443D340D0A000000010000005A
:0C139000100000000000000000127A00B5
:04000005080000ED02
:00000001FF
