:020000040800F2
:1000000008F500202D020008EB2A0008D928000876
:10001000E92A0008FB150008552F00080000000021
:10002000000000000000000000000000EF2A0008AF
:10003000FD15000800000000ED2A0008F12A000864
:10004000470200084702000847020008470200086C
:10005000470200084702000847020008470200085C
:10006000470200084702000847020008470200084C
:10007000470200084702000847020008470200083C
:10008000470200084702000847020008470200082C
:10009000470200084702000847020008470200081C
:1000A000470200084702000847020008470200080C
:1000B00047020008470200084702000847020008FC
:1000C00047020008470200084702000847020008EC
:1000D00047020008492E000847020008552E000874
:1000E00047020008470200084702000847020008CC
:1000F00047020008470200084702000847020008BC
:1001000047020008470200084702000847020008AB
:100110004702000847020008552B00084702000864
:10012000470200084702000847020008470200088B
:1001300000F002F800F06AF80AA090E8000C82448F
:100140008344AAF10107DA4501D100F05FF8AFF26C
:10015000090EBAE80F0013F0010F18BFFB1A43F0A5
:100160000103184730030600500306000A444FF00D
:10017000000C10F8013B13F0070408BF10F8014B06
:100180001D1108BF10F8015B641E05D010F8016B4B
:10019000641E01F8016BF9D113F0080F1EBF10F8AF
:1001A000014BAD1C0C1B09D16D1E58BF01F801CBD2
:1001B000FAD505E014F8016B01F8016B6D1EF9D555
:1001C0009142D6D37047000000230024002500266A
:1001D000103A28BF78C1FBD8520728BF30C148BFAA
:1001E0000B60704766292EF09281642900F0CA8066
:1001F000002070471FB500F003FD0400002000211F
:100200002DF014FCE0601FBD10B510BD00F0F8FD2E
:100210001146FFF7EFFF26F06BFB00F016FE03B46C
:10022000FFF7F2FF03BC00F019FE00000948804709
:1002300009480047FEE7FEE7FEE7FEE7FEE7FEE7C8
:10024000FEE7FEE7FEE7FEE704480549054A064BE0
:1002500070470000532B00083101000808E300201C
:1002600008F5002008E5002008E5002053EA020C0C
:1002700000F069802DE9F04B4FF00006002B1FBF06
:10028000B3FA83F503FA05F424FA05F65E4012BFCB
:100290001643B2FA82F502FA05F4C5F120051EBF35
:1002A00022FA05FC44EA0C04203556EA044C4FEAD5
:1002B000144418BF641C4FF000084FF0000990422E
:1002C00071EB030C39D3002919BFB1FA81F701FA98
:1002D00007F6B0FA80F700FA07F6C7F120071EBF4D
:1002E00020FA07FC46EA0C062037B6FBF4FCA7EB25
:1002F0000507103F07F01F0BCBF120060CFA0BFB94
:100300002CFA06F644BFB3460026202FA4BF5E4653
:100310004FF0000B5BEA060C08BF4FF0010B19EB26
:100320000B09ABFB027C48EB0608C01B06FB02CCAA
:100330000BFB03CC71EB0C01C1E70B4602464146B7
:100340004846BDE8F08B13B54FF000004FF00001B8
:10035000AFF30080BDE81C40704700000FB41CB52F
:10036000074B06AA7B4469460090059800F02FFCD5
:100370000020694600F03EFC1CBC5DF814FB000048
:100380008D0800002DE9F04106460024106875290B
:10039000314616A510D0AFF30080002802DA4042A3
:1003A00013A507E031688A0701D512A502E04907C5
:1003B00004D511A5012401E0AFF3008000210A2239
:1003C00006F1240709E0B0FBF2FCB0FBF2F302FBFC
:1003D0001C00303078541846491C0028F3D12346BD
:1003E0002A463046BDE8F04100F083B90000000025
:1003F0002D0000002B000000200000002DE9F05F20
:10040000894604464FF0000ADFF824B1FB44C0F8E7
:1004100020A02046E168884700287DD0252806D006
:10042000D4E901219047206A401C2062F1E70025B1
:100430005F462046E16888472028064607DB312EC4
:1004400005D2B81910F8200C08B10543F1E7A80748
:1004500001D525F00405C4F81CA00027C4F818A095
:100460002A2E09D0304602F0B8FD38B304EB8708D5
:10047000303EC8F8186019E059F8041B204604EB18
:1004800087029161E1688847012F064618D1E0692B
:10049000002820DA25F020051DE0D8F8180000EB30
:1004A000800006EB40003038C8F818002046E168AC
:1004B0008847064602F091FD0028EED1012F0AD0B0
:1004C0002E2E08D12046E16888477F1C0646022F61
:1004D00045F02005C4DBA069002803DA404245F05E
:1004E0000105A061E80701D025F01005A6B1A6F12D
:1004F0004100192802D8203645F400654A463146A5
:10050000204625604D46FFF76DFE60B1012807D0FB
:10051000ED1D25F0070000E007E000F1080978E78D
:1005200005F1040975E730467AE7206ABDE8F09FD7
:1005300094FA050040EA0103024630B59B0710D14A
:100540004FF0013400E008C208C91D1B9D4315EAA5
:10055000C41FF8D013F0FF0102F8011B0DD01B0AD5
:10056000F8E711F8013B002B02F8013B05D011F828
:10057000013B002B02F8013BF3D130BD10B5431C09
:1005800002E010F8011B71B18107FAD14FF001327E
:1005900002C88C1A8C4314EAC211F9D0C01A0A0698
:1005A00003D0C01E10BDC01A10BD0A0401D0801EA9
:1005B00010BD0902FCD0401E10BD10B5203AC0F09D
:1005C0000B80B1E81850203AA0E81850B1E8185054
:1005D000A0E81850BFF4F5AF5FEA027C24BFB1E891
:1005E0001850A0E8185044BF18C918C0BDE8104002
:1005F0005FEA827C24BF51F8043B40F8043B08BF0B
:100600007047D20728BF31F8023B48BF11F8012BD1
:1006100028BF20F8023B48BF00F8012B70474FF07D
:10062000000200B5134694469646203922BFA0E842
:100630000C50A0E80C50B1F12001BFF4F7AF09074E
:1006400028BFA0E80C5048BF0CC05DF804EB89003F
:1006500028BF40F8042B08BF704748BF20F8022B82
:1006600011F0804F18BF00F8012B70474FF0013C8C
:1006700050F8042B51F8043B9A4221D1A2EB0C0311
:10068000934313EACC1317D150F8042B51F8043BD1
:100690009A4215D1A2EB0C03934313EACC130BD16E
:1006A00050F8042B51F8043B9A4209D1A2EB0C03F9
:1006B000934313EACC13DBD04FF00000704700BF28
:1006C000D01A01BAB1FA81F101F0180122FA01F051
:1006D000CB40C1F12001DBB2C0B2C01A2CFA01F349
:1006E000D11A914311EAC311E6D1704770477047A0
:1006F00070472DE9F0470D4699469246044600F1B1
:1007000024080168880604D5E06921F01001216001
:1007100000E00120A84201DD471B00E00027A1699D
:100720007A1902EB0900081AA0612078C00602D4E9
:100730002046AFF30080002608E0D4E901211AF832
:1007400006009047206A401C761C20624E45F4DB70
:100750002078C0060AD52046AFF3008006E0D4E931
:10076000012130209047206A401C2062381EA7F1EA
:100770000107F4DC07E0D4E9012118F805009047EF
:10078000206A401C2062281EA5F10105F3DC2046EA
:10079000AFF300802078000602D50220BDE8F08784
:1007A0000120FBE770472DE9FF4F0C461E464FF036
:1007B000FF378BB0D2E90001DDF860800A908A46ED
:1007C000C1F30A5505B93D46002108464FF0000027
:1007D000BAF1000F00F4400005DA00EB80004FF49E
:1007E000400101EA50004FEA9059B9F1010F00DDD4
:1007F000B9460A9850EA4A000ED044F61050A5F2C5
:10080000FF3545432F14B8F1000F1ED07542291E45
:100810001EDDC9F100021CE0B8F1010F4FF000002D
:1008200001D0302103E0F24305E02154401CB042E6
:10083000FBDB30460022002121540B99C1F80880CF
:10084000C1E900200FB0BDE8F08FBD1B6D1CDEE7D5
:100850004A4600DA694206A800F05CFA06AB93E863
:10086000070003AB83E8070050460A9900F0FDFA41
:100870008DE80700A0F500501F3800900398002D68
:100880000ADD42F21F014A460844002303A90390EF
:10089000684600F066FD09E0A0F500504A461F38A2
:1008A000002303A90390684600F070FD8DE807005F
:1008B0000004000C03D04FF0FF30410800E0104668
:1008C000B8F1000F03D00022009215461EE0751EFD
:1008D00005D400F099F9303262556D1EF9D5B34652
:1008E0000122084302D000227F1C04E02078302837
:1008F00001D100227F1E002A099784D01DE0112D0E
:1009000007DA00F081F9303262556D1C50EA0102BD
:10091000F5D1084302D00098C8B10EE00021681E4E
:1009200005E0235C625C63542254401E491C8142F2
:10093000F7DBAB46A81B401E0990002004F80B0013
:100940000B98099AC0F80880C0E9002B7AE71126B5
:100950004FF0000857E72DE9F04F88460446D21DB6
:1009600022F0070191B0D1E90001CDE90A0102F0BE
:10097000F2FA02460B98C00F01D02D2007E0206844
:10098000810701D52B2002E0202101EAC000032AC3
:10099000099001D0072A05DB03464146204600F0B6
:1009A00079F90BE12078800601D5E06900E00620A6
:1009B000B8F1650F814606D0B8F1660F18D0B8F1CE
:1009C000670F70D131E00020B9F1110F009001DB09
:1009D000112301E009F101030AAA01A90CA8FFF7FC
:1009E000E2FEDDE90C70002609F10105834647E0CF
:1009F00001204B4600904FF000470AAA01A90CA81D
:100A0000FFF7D1FEDDE90DB00C995D46002610B967
:100A100009F101000D18B9EB050003D4C0F1FF3650
:100A200009F10105A5EB09002BE0B9F1010F01DA8D
:100A30004FF001090020B9F1110F0090484601DD87
:100A4000112300E003460AAA01A90CA8FFF7ABFE98
:100A5000DDE90C704D4600268346207800070AD455
:100A6000AB4500DA5D4601A8012D04DD411911F8FE
:100A7000011C302907D04F4502DA17F1040F04DAC0
:100A8000012082460FE06D1EEEE7002F02DCED1B19
:100A90003E4403E0781CA84200DD7D1CB81B00F139
:100AA000010A4FF000472078000703D4AA4501DB74
:100AB0004FF0FF3A0021B7F1004F0DF143088DF8D8
:100AC000431024D002202B23002F01DA7F422D2354
:100AD0000A21021EA0F1010000DC5FB197FBF1FCCE
:100AE00097FBF1F201FB1C7C17460CF1300C08F867
:100AF00001CDEEE7A8F1010003702188090501D5B9
:100B0000452100E06521A0F1010800F8011C0998C9
:100B10000FA9A1EB0807FF1D00B10120411901EB4E
:100B2000EA70A1693844081A401EA0612078C00606
:100B300002D42046AFF30080099828B1D4E90121FE
:100B40009047206A401C20622078C00622D52046AB
:100B5000AFF300801EE0002E04DBB34502DD01A8E8
:100B6000805D00E03020D4E901219047206A401CDC
:100B70002062761CAAF101005FEA000A0AD100F0A7
:100B80003FF8C0680168405CD4E901219047206AC1
:100B9000401C2062281EA5F10105DCDC07E0D4E939
:100BA000012118F8010B9047206A401C2062381E72
:100BB000A7F10107F3DC2046AFF30080032011B05A
:100BC00041E6000001694A1C02610878704700B5DF
:100BD0008FB0CDE901310021059105497944CDE976
:100BE000031011466846FFF709FC0FB000BD000076
:100BF000E5FFFFFF0A6802F8010B0A60704700007A
:100C000000487047C4E2002030B5B0F10A024FEA54
:100C1000900E71F100034EEA817EB0EB0E0061EBA5
:100C200091014FEA101E4EEA017E10EB0E0041EBDF
:100C300011114FEA102E4EEA016E10EB0E0041EB3F
:100C400011214FEA104E4EEA014E10EB0E0041EB1F
:100C50001141401841F100014FEAD00040EA4170D3
:100C60004FEAD10110EB80054FEA810444EA907409
:100C700044EB01046D1944EB0404521BA3414FF0F3
:100C8000000348BF0A3200D530BD401C41F10001CD
:100C900030BD00002DE9F0411F46044603260168DF
:100CA000072A01F4006004DB08B116A505E016A5CB
:100CB00003E008B115A500E015A521F010002060A3
:100CC000A069C01EA0610FB1401EA0612046AFF315
:100CD00000804FB1D4E9012138469047206A401C7A
:100CE0002062C01C206206E0206AFAE7D4E90121F4
:100CF00015F8010B9047761EF8D22046AFF300801E
:100D0000BDE8F0814E414E006E616E00494E4600D6
:100D1000696E66002DE9F047814616468AB035486F
:100D200078440DC88DE80D0032487844801C03AC2F
:100D30000DC884E80D0041F69B300844372190FB34
:100D4000F1F290FBF1F5A5F1800501FB12041B3CCB
:100D500002D56442012000E00020DFF898A0804620
:100D60000027FA44AAF1BE0A0EE0E0070AD0324694
:100D7000684607EB470101230AEB810100F006FBFF
:100D80008DE8070064107F1C002CEED1194F7F44C2
:100D9000AE3F19E0E80715D007EB04100DF1180A73
:100DA00090E80E008AE80E00C068F04201D1981960
:100DB00008903246012306A903A800F0E7FA03AB26
:100DC00083E807006D10641C002DE3D14FF0010390
:100DD00032466946B8F1000F03A802D000F0C1FA0C
:100DE00001E000F0D3FAC9E90001C9F808200AB00F
:100DF000BDE8F08710F2050000487047A4E200202B
:100E00007546FFF7F9FFAE4605006946534620F0E8
:100E10000700854618B020B5FFF716FABDE8204058
:100E20004FF000064FF000074FF000084FF0000BA6
:100E300021F00701AC46ACE8C009ACE8C009ACE859
:100E4000C009ACE8C0098D46704710B50446AFF341
:100E500000802046BDE81040FFF7E1B901491820A5
:100E6000ABBEFEE72600020070475FEA400C08BFF9
:100E700091F0000F4FEA8C234FEAC12243EA51510F
:100E80004FEA1C5018BF00F5F0404FEA300018BF81
:100E900041F000415FEA6C5C00F02980BCF1FF3F4B
:100EA00008BF40F080407047130C06BF12044FF09B
:100EB000100C4FF0000C130E04BF12020CF1080CC2
:100EC000130F04BF12010CF1040C930F04BF920026
:100ED0000CF1020CD30F04BF52000CF1010C1146AF
:100EE0004FF00002A0F11F00A0EB0C00704711F0C2
:100EF000004F08BF704731F000413FF4D5AF0B0CF5
:100F000006BF09044FF0100C4FF0000C0B0E04BF8D
:100F100009020CF1080C0B0F04BF09010CF1040CC1
:100F20008B0F04BF89000CF1020CCB0F04BF4900EA
:100F30000CF1010CCCF12003A0EB0C0022FA03F31E
:100F400002FA0CF241EA030100F10100704720F0BF
:100F50007F4C80EA030023F07F47ACEB070303F5E7
:100F60007C5300F0004003F1FF032DE980494FEA74
:100F7000154B09B44FEA144325EA0B4E24EA034803
:100F80000FF2042606EB132749083E785FEA320287
:100F900003FB0667C7F5000707FB06F64FEA543761
:100FA0004FEAD64606F1020607FB066CCCF1005C60
:100FB0004FEA1C472CEA074C07FB06F40CFB06F52E
:100FC00004EB15464FEA961634BF00204FF0004060
:100FD0004FEAD13706FB07FC4FEA1C4C0CFB0BF722
:100FE000D21B03FB0CF761EB07010CFB0EF7B0EB18
:100FF000074072EB17420CFB08F734BFA2EB074225
:10100000B2EB074261EB17414FEA0C444FEA9107FC
:1010100006FB07FC4FEA1C4C0CFB0BF7B0EBC74080
:1010200072EB573203FB0CF734BFA2EBC742B2EBB3
:10103000C74261EB57310CFB0EF7B0EBC70072EB08
:1010400057720CFB08F734BFA2EBC702B2EBC70222
:1010500061EB5771039F4FEA816141EA921104EB02
:10106000CC044FEAD1374FEA826206FB07FC42EA22
:1010700090124FEA80604FEA1C4C0CFB0BF7D21B1E
:1010800003FB0CF761EB07010CFB0EF7B0EB07401D
:1010900072EB17420CFB08F734BFA2EB0742B2EB2E
:1010A000074261EB17414FEA8C554FEA910704EB79
:1010B0009C2406FB07FC4FEA1C4C0CFB0BF7B0EB27
:1010C000C74072EB573203FB0CF734BFA2EBC742A9
:1010D000B2EBC74261EB57310CFB0EF7B0EBC70028
:1010E00072EB57720CFB08F734BFA2EBC702B2EBEE
:1010F000C70261EB577115EB4C254FEA816141EA5C
:1011000092114FEA82624FEAD13742EA901206FB0F
:1011100007FC44F100044FEA80604FEA1C4C0CFBD2
:101120000BF7D21B03FB0CF761EB07010CFB0EF76F
:10113000B0EB074072EB17420CFB08F734BFA2EB91
:101140000742B2EB074261EB174115EB1C154FEA62
:10115000813141EA92414FEA823242EA90424FEABB
:1011600080304FEA0C7644F1000448EA03434EEA2B
:101170000B484FF0000EB2EB080C71EB030724BFD5
:10118000624639464EEB0E0E4FF0000B00185241EE
:1011900049414BEB0B0BB2EB080C71EB03077BF1F6
:1011A000000B24BF624639464EEB0E0E4FF0000B8B
:1011B0000018524149414BEB0B0BB2EB080C71EBA1
:1011C00003077BF1000B24BF624639464EEB0E0E3F
:1011D00051EA020718BF46F0010616EB0E7655F1EC
:1011E000000254F1000103D5BDE88901BDE8008883
:1011F000BDE88901BDE80048B619524141EB010143
:10120000A3F10103704780807F7E7D7C7B7A7978B3
:10121000777676757473727171706F6E6E6D6C6CBB
:101220006B6A6A696868676666656464636362615D
:101230006160605F5F5E5E5D5D5C5C5B5B5A5A59DE
:10124000595858575756565555555454535352524A
:101250005251515050504F4F4F4E4E4D4D4D4C4CA2
:101260004C4B4B4B4A4A4A494949484848474747EB
:101270004746464645454544444444434343434228
:10128000424242414141002B9C4630D477002BD052
:101290001CB54FEA370703B44FF010004FF01001B0
:1012A000BAF1000F06D0BCF1000FDCBF40F008001F
:1012B00040F008014FF000000FBCBDE810400BF1FA
:1012C000010BBBF1010F08BF5FEA170722BF12F144
:1012D000010211F101014FF0004143F1000300F060
:1012E000004043EA00007047F9D35708D0E746EAC8
:1012F000064613F1400F4FEA16461FDD13F1200F8B
:10130000DFBF16430A46002120335B42BED0C3F143
:10131000200746EA064602FA07F74FEA164646EA6B
:101320000706C3F1200722FA03F201FA07F721FAB0
:1013300003F14FF0000342EA0702A7E746EA02067C
:1013400046EA06464FEA164646EA0106BCBF46EAAA
:101350000646360C4FF000034FF000024FF000013C
:1013600094E72DE9804C9A46934670B491E8380092
:1013700007C831EA400C48BF34EA430C03D5FFF7F5
:10138000E6FDFFF780FFF0BCBDE8008C2DE9804C46
:101390009A46934670B491E8380007C810F0804F21
:1013A00008BF13F0804F03D100F005F8FFF76BFF83
:1013B000F0BCBDE8008C20F07F4780EA030023F0FA
:1013C0007F4C07EB0C03A3F57C5300F00040A3F126
:1013D000FE0392F0000F00F0B38095F0000F00F0D4
:1013E00077802DE901494FEA11404FEA144621EA7E
:1013F000004800FB06FC24EA064708FB06F607FB4C
:1014000008F800FB07F718EB06484CEB164C4FEAC0
:10141000124B18EB07484FEA15464CEB174022EAEF
:101420000B4E0BFB06FC25EA06470EFB06F607FBF8
:101430000EFE0BFB07F71EEB064E4CEB164C4FF067
:1014400000061EEB074E4CEB174B18EB0B0840F158
:10145000000018EB0E0B58EB000840F100008F1A4B
:101460004FF000013CBFC943661B14BFB5EB040C31
:1014700000213CBFC943F61B4FEA17444EEA8E0ECB
:1014800027EA04454FEA1C4704FB07622CEA074C95
:1014900005FB07F70CFB05F604FB0CFC16EB0746F7
:1014A00042EB174216EB0C4642EB1C421BEB0606C6
:1014B00058EB0202414146EA9E0601D5BDE801898A
:1014C000B619524141EB0101A3F10103BDE80189C5
:1014D0004FEA14454FEA114724EA054621EA074C32
:1014E00005FB07F406FB07F70CFB06F105FB0CFCFC
:1014F00011EB074144EB17444FEA124711EB0C4143
:1015000044EB1C4422EA074C05FB07F206FB07F7F5
:101510000CFB06F605FB0CFC16EB074642EB1742EC
:1015200016EB0C4642EB1C456A1854F1000148BF0B
:101530007047B619524141EB0101A3F10103704715
:1015400095F0000F37D04FEA11424FEA144721EAD5
:10155000024624EA074C02FB07F106FB07F70CFBE7
:1015600006F402FB0CFC14EB074441EB17414FEA75
:10157000154714EB0C4441EB1C4125EA074C02FBD8
:1015800007F506FB07F70CFB06F602FB0CFC16EB57
:10159000074645EB174516EB0C4645EB1C42121966
:1015A00051F1000148BF7047B619524141EB0101AA
:1015B000A3F1010370474FEA14454FEA114724EAAB
:1015C000054621EA074C05FB07F106FB07F70CFB74
:1015D00006F24FF0000605FB0CFC12EB074241EB54
:1015E000174112EB0C4251EB1C4148BF7047921857
:1015F00041EB0101A3F101037047FEE7704772B6AA
:10160000FEE7000030B5B3F5804F05D06FF07041B4
:1016100040F82210002030BD8C690B688D68234390
:101620004C688989240144EA0524234343EA0141A3
:1016300050F82230014C23401943E9E70000F0CF75
:1016400010B50A6850F8223023F0010340F8223028
:101650008C68082C23D000234A682243CC681C43A2
:101660000B6922431A434B690E4C1A43CB691A4348
:101670000B6A1A434B6A1A438B6A1A43CB6A1A43A2
:101680000B6B1A438B6913434A6B09681A4350F872
:101690002130A343134340F82130002010BD4023E4
:1016A000DAE700007FFF0F0030B5D1E9003443EAEC
:1016B00004138C688D89240244EA054423430C8A70
:1016C000074D00EB820005EB045423430C7D6D01B4
:1016D00005EB0464896923430B434360002030BD5C
:1016E0000000F0FF10B590F821100022022905D06B
:1016F0000421816380F82020012010BD01680B685F
:1017000023F00E030B6001680B6823F001030B60EC
:1017100090F84030C46B012101FA03F3636080F854
:10172000211080F82020104610BD00002DE9F05F48
:1017300090F821100024022903D0042181630124A0
:1017400085E001680A6822F00E020A6001680A68F2
:1017500022F001020A603F4E3E4FB215DFF8F4C09E
:10176000DFF8F090DFF8ECA0DFF8E8B0DFF8E4E0B5
:101770000168783F13011502ACF1640CA9F150091E
:10178000AAF13C0AABF1280BAEF1140E4FF480180D
:10179000B14227D9B9420ED0614512D049451DD07A
:1017A000514518D0594518D0714501D1424615E030
:1017B000294EB14201D1012210E0274E1436B14228
:1017C00001D110220AE0244E2836B14206D0224A26
:1017D0003C32914201D11A4600E02A461E49091FB7
:1017E0000A602BE0B94213D0614517D0494522D099
:1017F00051451DD059451DD0714501D142461AE0D1
:10180000B14202D14FF0807215E0134EB14201D1C6
:10181000012210E0104E1436B14201D110220AE02C
:101820000D4E2836B14206D00B4A3C32914201D1CE
:101830001A4600E02A46074980394A60012180F8AB
:101840002110002180F82010416B01B1884720460B
:10185000BDE8F09F800002400804024070B50446D5
:1018600000F054F90546601C02D004480078044496
:1018700000F04CF9401BA042FAD370BD10000020CC
:1018800030B585B000200090019002900390174879
:101890000168002927D1012101601548416941F4FF
:1018A000807141614069022400F48070049041F22B
:1018B0000100CDE900040325694603950D4800F0B9
:1018C0001FF84FF68070CDE90004694603950A4879
:1018D00000F016F84CF23370CDE900046946039528
:1018E000064800F00DF805B030BD000004000020EF
:1018F0000010024000200140001801400014014087
:101900002DE9F84FDFF8C8910024A9F1040B234614
:101910000F2709F1040AABF1040ED1E00125A5401F
:1019200006EA0502AA4276D1DFF8A8C14E68A6EB06
:101930000C0866452BD00DDC032E34D005DC36B305
:10194000012E19D0022E2FD11BE0112E16D0122EEF
:101950002AD119E0B8F5881F19D006DCB8F5803F08
:1019600015D0B8F5801F1FD111E0B8F5001F0ED0BB
:10197000B8F5041F18D10AE0CB6815E0CB681B1D31
:1019800012E0CB6808330FE0CB680C330CE08B68B7
:101990002BB1012B4FF0080303D0456104E0042371
:1019A00002E0056100E00023FF2A01D8064601E0BD
:1019B00000F104064FEA840501D9A5F12005D6F807
:1019C000008007FA05FC28EA0C0803FA05F548EA46
:1019D0000508C6F800804D68ED0070D53E4DAE6933
:1019E00046F00106AE61AD6924F0030605F001057D
:1019F00000953A4D06EB050CDCF80850A607360FAB
:101A000007FA06F825EA0805DFF8D480404503D137
:101A10004FF0000825E052E0DFF8C880404502D1D1
:101A20004FF001081DE0DFF8C080404502D14FF0C3
:101A3000020816E0DFF8B480404502D14FF00308F9
:101A40000FE0DFF8AC80404502D14FF0040808E019
:101A5000DFF8A080404502D14FF0050801E04FF0CB
:101A6000060808FA06F848EA0508CCF808804D6828
:101A7000D9F80060ED024D4601D5164300E09643CB
:101A80002E604D68DAF80060AD02554601D5164368
:101A900000E096432E604D68DBF80060AD035D46C4
:101AA00001D5164300E096432E604D68DEF80060D5
:101AB000ED03754601D5164300E096432E60641C85
:101AC0000A681646E2407FF429AFBDE8F88F0000AF
:101AD0000804014000001110001002400000014005
:101AE00000080140000C01400010014000140140BA
:101AF00000180140001C01408068084000D001200F
:101B000070470AB1016170470904FBE7014880682A
:101B100070470000100000200248816802781144DC
:101B20008160704710000020074810B5016841F03F
:101B300010010160032000F075F80F2000F006F896
:101B400000F024F8002010BD0020024070B50D4DBB
:101B500004464FF47A712878B1FBF0F00A4909681D
:101B6000B1FBF0F000F010FB48B9102C07D20022B6
:101B70002146501E00F036F800206C6070BD012038
:101B800070BD0000100000201C0000200C4808B5AB
:101B9000816941F001018161816901F001010091D8
:101BA000C16941F08051C161C06900F0805000906E
:101BB0000448416821F0E06141F00071416008BDD6
:101BC0000010024000000140002809DB00F01F0265
:101BD000012191404009800000F1E020C0F800118F
:101BE00070470000F0B40E4B1B680C46C3F3022391
:101BF000C3F10705042D00D90425191D072901D2B9
:101C0000002300E0DB1E012606FA05F1491E2140F3
:101C100099409E40761E16403143F0BC01F0AFB9AA
:101C20000CED00E0064900F0070208684FF6FF03DC
:101C3000184040EA0220034A104308607047000041
:101C40000CED00E00000FA052DE9F0470F46050015
:101C500061D0434E306800F00700B84209D23068C6
:101C600020F0070038433060306800F00700B842C9
:101C700051D128683B4C810712D5400703D56068D5
:101C800040F4E06060602878000703D5606840F4A5
:101C9000605060606068A96820F0F00008436060F0
:101CA0002878C00728D06868012810D02168022849
:101CB00010D0890700292EDA616821F00301014361
:101CC0006160FFF723FF804641F288390DE021680B
:101CD0008903EFE78901EDE7FFF718FFA0EB0801A3
:101CE000494502D90320BDE8F0876068696800F0C3
:101CF0000C00B0EB810FEFD1306800F00700B84264
:101D00000BD9306820F0070038433060306800F0AD
:101D10000700B84201D00120E5E72878400705D543
:101D20006068E96820F4E060084360602878000794
:101D300006D56068296920F4605040EAC1006060FF
:101D400000F038F86168084AC1F30311515CC840DB
:101D50000649086006480068FFF7F8FE0020C2E761
:101D60000020024000100240A41403081C000020C0
:101D7000140000200448054900684968044AC1F37A
:101D80000221515CC84070471C0000200010024036
:101D9000B41403080448054900684968044AC1F3BB
:101DA000C221515CC84070471C0000200010024056
:101DB000B41403080E4A51680E4801F00C03042BBA
:101DC00011D0082B0FD10C48C1F38343C903C05C69
:101DD0000AD55168084AC1F34041921E515C054A38
:101DE0005043B0FBF1F0704704494843704700008E
:101DF0000010024000127A009414030800093D000C
:101E00002DE9F84F040070D02078C04DC00749D0AC
:101E10006868C0F38100012807D06868C0F38100BA
:101E2000022809D16868C00306D52868800339D51F
:101E300060680028E7D035E06068B0F5803F0BD0DF
:101E400010B1B0F5A02F11D0286820F480302860A0
:101E5000286820F4802002E0286840F48030286060
:101E6000606890B1FFF752FE06460AE0286840F429
:101E700080202860F0E700BFFFF748FE801B642841
:101E800073D828688003F7D50CE0FFF73FFE0646BD
:101E900005E000BFFFF73AFE801B6428F0D82868F1
:101EA0008003F7D420789A4E80074FF001094FF055
:101EB000000839D5686810F00C0F07D06868C0F3C7
:101EC0008100022809D16868C00306D42868800709
:101ED00014D52069012808D110E02069B0B1C6F8F6
:101EE0000090FFF713FE074605E00AE1FFF70EFE3C
:101EF000C01B0228C4D828688007F7D52868616904
:101F000020F0F80040EAC10028600DE0C6F800802B
:101F1000FFF7FCFD074604E0FFF7F8FDC01B0228B1
:101F200023D828688007F7D4207800072CD5794873
:101F3000A169D9B1C0F80090FFF7E8FD074604E0B9
:101F4000FFF7E4FDC01B02280FD8686A8007F7D5A9
:101F500071484FF4FA510068B0FBF1F0009000BFF7
:101F60000098411E0091FAD20EE080E0C0F8008097
:101F7000FFF7CCFD074604E0FFF7C8FDC01B0228B1
:101F800075D8686A8007F7D42078400760D5E8697B
:101F90000027C00008D4E86940F08050E861E86993
:101FA000012700F0805000905C480168C90513D4F7
:101FB0000168834641F480710160FFF7A7FD824606
:101FC00006E000BFFFF7A2FDA0EB0A0064284ED890
:101FD000DBF80000C005F5D5E06801280AD008B19B
:101FE000052813D0286A20F001002862286A20F012
:101FF000040002E0286A40F001002862E06841F233
:10200000883B98B1FFF782FD82460BE0286A40F0DA
:1020100004002862EEE700BFFFF778FDA0EB0A019D
:1020200059455AD8286A8007F6D50CE0FFF76EFDAF
:10203000824605E0FFF76AFDA0EB0A0159454CD83E
:10204000286A8007F6D41FB1E86920F08050E86163
:10205000E06988B36968C1F38101022944D002288C
:10206000C6F8608004D0FFF751FD044638E034E044
:10207000FFF74CFD074604E0FFF748FDC01B0228B0
:102080002BD828688001F7D4206AB0F5803F05D1AD
:102090006868A16820F4003008436860D4E908014A
:1020A0000843696821F4741108436860C6F86090B9
:1020B000FFF72CFD044606E025E000BFFFF726FDF4
:1020C000001B022809D828688001F7D51BE000BF53
:1020D000FFF71CFD001B022802D90320BDE8F88F82
:1020E00028688001F4D40EE00128F7D06868226ADD
:1020F00000F48031914204D1616A00F4701088428A
:1021000001D00120EAE70020E8E7000000100240CB
:1021100000004242800442421C0000200070004047
:1021200070B515460E46040007D0A069B0F5807F53
:1021300003D094F8410010B107E0012070BD0020E9
:1021400084F84000204600F01DF804F108012068E2
:10215000FFF776FA3146A2682068FFF7A5FAD4E9BE
:1021600001022946236BFFF74DFAA168206850F859
:10217000212042F0010240F82120012084F8410092
:10218000002070BDFFF77CBB10B5401EB0F1807F12
:1021900001D3012010BD4FF0E02460610F216017D2
:1021A00000F0EDFE0020A06107202061002010BD9E
:1021B0007047704770B590F83C20012A2CD001245C
:1021C00080F83C40022280F83D2003685A689D68F0
:1021D00022F070060A6832435A60104B02689A4235
:1021E0000ED00F4B9A420BD0B2F1804F08D00D4B5E
:1021F0009A4205D00C4B9A4202D00C4B9A4204D121
:10220000496825F080031943916080F83D40002122
:1022100080F83C10084670BD022070BD002C0140C3
:10222000003401400004004000080040000C004061
:1022300010B5040003D094F83D0010B107E0012070
:1022400010BD002084F83C00204600F01FF802205A
:1022500084F83D00211D206800F082FC012084F8F4
:10226000460084F83E0084F83F0084F8400084F87B
:10227000410084F8420084F8430084F8440084F864
:10228000450084F83D00002010BD000008B500683E
:102290000B49884212D10B48C16941F01001C1615C
:1022A000C069002200F01000009011463620FFF7B0
:1022B00099FCBDE808403620FFF786BC08BD000049
:1022C000001000400010024090F83D10012901D09C
:1022D00001207047022180F83D100168CA6842F071
:1022E0000102CA6000680E4988420ED00D4988423A
:1022F0000BD0B0F1804F08D00B49884205D00B4974
:10230000884202D00A49884204D1816801F007015D
:10231000062903D0016841F00101016000207047E7
:10232000002C01400034014000040040000800403F
:10233000000C004070472DE9F04104460068C66873
:1023400005694FF00007A90713D5B10711D5F91E8C
:10235000016101202077206880698007204602D033
:10236000FFF7E8FF04E000F07EF8204600F07CF87C
:102370002777680716D5700714D521686FF0040019
:102380000861022020772068806910F4407F204691
:1023900002D0FFF7CFFF04E000F065F8204600F020
:1023A00063F82777280715D5300713D521686FF014
:1023B00008000861042020772068C0698007204653
:1023C00002D0FFF7B7FF04E000F04DF8204600F020
:1023D0004BF82777E80616D5F00614D521686FF07C
:1023E00010000861082020772068C06910F4407F41
:1023F000204602D0FFF79EFF04E000F034F82046AC
:1024000000F032F82777E80708D0F00706D02168F7
:102410006FF001000861204600F028F8280608D572
:10242000300606D521686FF0800008612046FFF76E
:10243000BFFE680608D5700606D521686FF040001B
:102440000861204600F01CF8A8060AD5B00608D599
:1024500021686FF0200008612046BDE8F041FFF7D9
:10246000A8BEBDE8F08170477047000000680349CE
:10247000884202D1012023F03FBD70470010004088
:102480007047704770470000F8B501680446086857
:10249000CA684B6910F00F0F4FF0000559D003F0D8
:1024A000010602F49077374365D0C10705D0D10506
:1024B00003D5616C41F001016164410705D5D9077D
:1024C00003D0616C41F002016164810705D5D90731
:1024D00003D0616C41F004016164010707D502F08B
:1024E0002001314303D0616C41F008016164616CEB
:1024F00000293AD0800604D5900602D5204600F087
:10250000ACFB20684069616CC0F38010090700D4FF
:1025100060B3204600F07AFB20684069400621D570
:102520002068143050E8001F21F0400140E80012FC
:10253000002AF5D1E06BA8B16D494163E06BFFF76C
:10254000F5F8002811D0E06B416B01B0BDE8F04018
:10255000084783060FD593060DD52046BDE8F84001
:1025600000F07BBB2046FFF78DFFF8BD2046FFF74C
:1025700089FF6564F8BD266B2023012E7CD1C60639
:102580007AD5D60678D508684868009048694FF033
:102590000206400640D5E16B086840680004000C64
:1025A000E8D0A28D8242E5D9E085886920282DD027
:1025B00020680C3050E8001F21F4807140E80012C0
:1025C000002AF5D12068143050E8001F21F00101E5
:1025D00040E80012002AF5D12068143050E8001FAE
:1025E00021F0400140E80012002AF5D184F8423081
:1025F000256320680C3050E8001F21F0100140E8EE
:102600000012002AF5D1E06BFFF76CF86663A08D2D
:10261000E18D401A81B22AE0A08DE18D401A81B28D
:10262000E08D0028A6D00029A4D022680C3252E800
:10263000000F20F4907042E80007002FF5D12068C9
:10264000143050E8002F22F0010240E80027002F4C
:10265000F5D184F84230256320680C3050E8002F13
:1026600022F0100240E80023002BF5D166632046DB
:10267000FFF707FFF8BDFFE705062BD5150629D59F
:1026800094F841002128F5D1A068B0F5805F01D110
:102690002069B0B1206A411C21622168007848603D
:1026A000E08C401E0004000CE084E3D12068C16887
:1026B00021F08001C1602068C16841F04001C16023
:1026C000D8E7206A0088C0F308004860206A801CB0
:1026D0002062E5E74006CDD55006CBD5CA68204636
:1026E00022F04002CA6084F8413000F0F4F8C1E7FB
:1026F000FD2B000870B5040004D094F841000025BB
:1027000010B106E0012070BD84F84050204600F072
:1027100023F8242084F841002068C16821F4005186
:10272000C160204600F0FAFA2068016921F4904166
:1027300001612068416921F02A0141612068C16876
:1027400041F40051C1606564202084F8410084F8A0
:1027500042006563002070BD70B586B0002400940F
:1027600001940294039403682E482D4E0221032203
:102770000515B34226D1836943F48043836183699D
:1027800003F480430493836943F004038361806905
:10279000254E00F0040004900802CDE900010392E8
:1027A00069463046FFF7ACF8CDE90054694630463B
:1027B0000294FFF7A5F8002211462520FFF712FA30
:1027C000252028E0194EB34227D1C36943F4802362
:1027D000C361C36903F480230493836943F008034E
:1027E00083618069CDE9005100F00800CDE9032044
:1027F0000F4D69462846FFF783F8E814CDE9000439
:10280000694628460294FFF77BF8002211462720EC
:10281000FFF7E8F92720FFF7D7F906B070BD0000F1
:10282000003801400010024000080140004800400C
:10283000000C014070472DE9F843044690F8410030
:10284000984616460D46202802D00220BDE8F8839F
:1028500085B17EB100206064212084F84100FFF73B
:1028600055F9A6848146E684A0682027B0F5805FEC
:1028700002D003E00120E9E7206910B12E460025CF
:102880000EE000260CE08021204600F0A3FAA8B953
:10289000C6B116F8010B21684860E08C401EE08448
:1028A000E08C4B464FF00002CDF800800028EAD1C2
:1028B0004FF04001204600F08DFA40B184F841709D
:1028C0000320C3E735F8020BC0F30800E3E784F800
:1028D00041700020BAE77047FEE7000000B58FB0F6
:1028E0001C216846FDF79BFE1C2107A8FDF797FEFB
:1028F0001B484FF02041102201601A494160062117
:1029000081600021C160C0E904128161C1611302CC
:102910000162C0E909139302C0E90B1341638163AB
:102920000F20CDE900100DF1080C11238CE80F00E9
:102930000691CDE907100DF1240C01208CE80F0061
:102940000D9107AA69460648FFF7EAFB08B1FEF7B2
:1029500056FE0548C16941F48061C1610FB000BDF8
:1029600030040020040100A000000140F0B585B053
:1029700000252C480095019502950395816941F049
:1029800040018161816901F040010491816941F058
:1029900008018161816901F008010491816941F4B4
:1029A00080718161816901F480710491816941F0D4
:1029B00020018161816901F020010491816941F068
:1029C000040181618069184E00F004000490012226
:1029D00020213046FFF795F8144F002240F20111F4
:1029E0003846FFF78EF8202001248DE831000225BB
:1029F000694630460395FEF783FF009469463846E2
:102A00000194CDE90245FEF77BFF2002CDE90004E9
:102A10000320CDE9024069463846FEF771FF05B054
:102A2000F0BD00000010024000180140000C014001
:102A30001CB500240F4800940D4901940160472102
:102A4000C0E9011440F2E731C16080218161FFF7E4
:102A5000EFFB08B1FEF7D3FD0094694605480194E9
:102A6000FFF7A8FB002801D0FEF7C9FD1CBD000040
:102A700000100040780400200C4810B50A4901609D
:102A80004FF4E1314160002181600C22C160C0E956
:102A900004128161C161FFF72DFE002803D0BDE85B
:102AA0001040FEF7ACBD10BD00380140C00400204E
:102AB0000C4810B50A4901604FF4E1314160002132
:102AC00081600C22C160C0E904128161C161FFF71D
:102AD00011FE002803D0BDE81040FEF790BD10BDE8
:102AE0000048004008050020FEE7FEE770477047F9
:102AF000FFF712B830B58FB028216846FDF78FFD7B
:102B000014210AA8FDF78BFD01210804CDE900106E
:102B10000024029402250491CDE907504FF4E010FF
:102B200009906846FFF76CF908B172B6FEE70F200E
:102B3000CDE90A054FF48060CDE90C4002210AA8D6
:102B40000E94FFF781F8002801D072B6FEE70FB0AF
:102B500030BD70470148FFF7EEBB0000780400204D
:102B6000F0B50268204C214D214E224F224B4FF0F0
:102B7000804CA04209D0984207D0604505D0A842B9
:102B800003D0B04201D0B84204D122F0700E4A689E
:102B900042EA0E02A04209D0984207D0604505D013
:102BA000A84203D0B04201D0B84203D122F440750C
:102BB000CA682A434D6922F080022A4302608A686B
:102BC000C2620A688262A04201D0984201D10969BA
:102BD0000163012141610169C90703D0016921F045
:102BE00001010161F0BD0000002C01400004004023
:102BF00000080040000C00400034014010B5406A5D
:102C00000021C185C184FFF73DFC10BD01680C3176
:102C100051E8002F22F4907241E80023002BF5D1F7
:102C20000168143151E8002F22F0010241E800232D
:102C3000002BF5D1016B012909D101680C3151E854
:102C4000002F22F0100241E80023002BF5D12021B3
:102C500080F8421000210163704708B590F84210D7
:102C6000222901D0022008BD82684FF480539A4285
:102C700001D1016921B1816A9A421BD04AB10AE0AF
:102C80000268816A5268C2F308020A80816A891C5C
:102C900008E0026972B10268526802F07F020A70AD
:102CA000816A491C8162C18D491E0904090CC185D4
:102CB00003D01BE002685268F1E70168CA6822F09D
:102CC0002002CA600168CA6822F48072CA60016882
:102CD0004A6922F001024A61202180F84210002155
:102CE0004163026B012A03D0FFF7A4FD002008BD59
:102CF000016301680C3151E8002F22F0100241E815
:102D00000023002BF5D101680A68D20602D50A68B3
:102D100049680091818DFFF7B4FBE7E770B5044681
:102D200000680169E26821F44051114301612169A1
:102D3000A0680843616908432168CA6841F20C63CE
:102D40009A430243CA6020684169A26921F4407134
:102D5000114341611E492068884202D1FFF71AF8E9
:102D600001E0FFF707F800EBC00101EB001260681B
:102D700064218000B2FBF0F3B3FBF1F36FF01806AF
:102D80007343B2FBF0F5B2FBF0F605EB830532239B
:102D900003EB0515B5FBF1F5B6FBF1F605F0F00513
:102DA00005EB0615B2FBF0F6B2FBF0F0B0FBF1F06C
:102DB0006FF01802504306EB800003EB0010B0FBED
:102DC000F1F0216800F00F002844886070BD000019
:102DD000003801402DE9F843984617460D46044651
:102DE000089E24E0701C22D0FEF790FEA0EB0800A5
:102DF000B0421AD8CEB12068C168490717D5802DD6
:102E000015D0402D13D00168C94309070FD40168BC
:102E10000025406800902046FFF7F8FE0820606417
:102E200084F840500120BDE8F8830320FBE72068C8
:102E3000006835EA000004D00020B842D2D000205B
:102E4000F1E70120F9E700000148FFF71DBB000092
:102E5000C00400202DE9F843374800680168374D69
:102E6000374C89060AD540688DF800009DF800109F
:102E700028682154401C2860BDE8F8830168C90611
:102E8000FAD540688DF80000A078DFF8B8902B28BC
:102E90001BD1E078492818D1E07A392815D8302894
:102EA00013D3002220214846FEF72BFEE07A8DF84E
:102EB0000000207BA0F13001092901D88DF8010024
:102EC00021496846896825F045FA642380221C4917
:102ED0001E48FFF7B0FCA07800262B281DD1E07813
:102EE00049281AD1E07A6F2817D1207B6B2814D19A
:102EF0000122DFF85C80170239464046FEF701FEEA
:102F000042F2107000960099491C00918142FADB50
:102F1000002239464046FEF7F4FD0020296801E012
:102F20002654401C8842FBDD48462E60BDE8F8432D
:102F300001222021FEF7E5BD080500200C0000203D
:102F40005005002000180140A4030020C004002008
:102F5000000C0140FEE7490050EAC12018BF0420E0
:102F60004A0D18BF40F0010040F2FF72B2EB515F12
:102F700008BF40F00200012808BF0520704709077C
:102F8000090E002804DB00F1E02080F800147047EF
:102F900000F00F0000F1E02080F8141D704770B5BC
:102FA000044600256FF02F0608E02068411C2160D0
:102FB000007805EB850106EB410145182068007893
:102FC00000F004F80028F0D1284670BD30380928F8
:102FD00001D8012070470020704730380A2801D2FC
:102FE000012070470020704710B54421074800F0C9
:102FF00082FE00221E21064822F0D8FF054CA06068
:1030000001F04AFF0020207010BD00004C07002096
:103010004D4F00088C0100202DE9F0470E468146F7
:1030200017461146304600F011F900287ED00022E4
:103030003946304600F0B6F800284FF0000076D14F
:10304000B6F904C0B6F90030F288ACEB03010FFA10
:1030500081FAB6F90210B7F80280521AA8EB0108FB
:103060000FFA88F812B2B8F1000F0EDD63F30F0407
:103070006CF30F0501EB080061F31F4460F31F457B
:10308000C9F800400120C9F80450B7F90610738848
:10309000CB1AD21A12B2002A13DDB6F906309942C1
:1030A0000FDA338863F30F04B38861F31F4463F3CB
:1030B0000F05114461F31F4509EBC001401C0C6072
:1030C0004D60B7F90220B6F902108A4200DD1146C0
:1030D000B7F90630B6F90620934200DA1A463B8863
:1030E000B6F900C0521AA3EB0C031BB212B2002BAC
:1030F00010DD002A0EDD634463F30F058B1863F3C4
:103100001F456CF30F0409EBC00361F31F441C60FF
:103110005D60401CB7F904703388FE1AAAEB060301
:103120001BB2002B11DD67F30F0401E00FE00CE090
:1031300061F31F443B4463F30F05114461F31F45E2
:1031400009EBC001401C0C604D60BDE8F0874FF0FA
:10315000FF30FAE770B5B1F90030B2F90040A34290
:1031600000DC23460380B1F90250B2F90240A542C7
:1031700000DD2C464480B1F90460B2F90450AE423F
:1031800000DA35468580B1F90610B2F90620914281
:1031900000DB1146C1800120AB4201DC8C4200DD26
:1031A000002070BDF8B50D460446B0F90000B1F935
:1031B00000101646884247DBB4F90210B5F9022028
:1031C000914241DBB4F90410B5F9042091423BDC93
:1031D000B4F90610B5F90620914235DC96B3ADF886
:1031E00000006088ADF8020032466946284600F0CB
:1031F00099F8002827D0A088ADF800006088ADF8C5
:10320000020032466946284600F08CF800281AD0A1
:103210002088ADF80000E088ADF80200324669462B
:10322000284600F07FF800280DD0A088ADF80000F7
:10323000E088ADF8020032466946284600F072F890
:10324000002800D00120F8BD0020F8BDB0F9002012
:10325000B1F904309A4213DCB0F90420B1F900301E
:103260009A420DDBB0F90220B1F906309A4207DC30
:10327000B0F90600B1F90210884201DB0120704765
:1032800000207047F8B50D460446B0F90400B1F9C6
:1032900000101646884243DBB4F90600B5F9021067
:1032A00088423DDBB4F90000B5F90410884237DCF0
:1032B000B4F90210B5F90620914231DC76B3ADF8CD
:1032C00000006088ADF8020032466946284600F0EA
:1032D00029F818BBA088ADF800006088ADF802009E
:1032E00032466946284600F01DF8B8B92088ADF886
:1032F0000000E088ADF8020032466946284600F03A
:1033000011F858B9A088ADF80000E088ADF80200C7
:1033100032466946284600F005F808B10020F8BD9D
:103320000120F8BD2DE9FC4114460E46B1F90020FC
:10333000B0F9001005468A423ADBB5F90400824232
:1033400036DCB6F90270B5F90220974230DBB5F9E8
:1033500006309F422CDC002C75DD401A9A1A401C66
:10336000521C00B212B200EBD07002EBD2724010CD
:103370005210904200DB1046844200DD0446ADF856
:103380000010288800222044ADF804006888ADF8B9
:103390000200688831462044ADF806006846FFF711
:1033A000C1FF40B1BDF804002044ADF804003FE087
:1033B0000020BDE8FC81E8880022001BADF8020077
:1033C000E888ADF8060031466846FFF7ABFF28B144
:1033D000BDF804002044ADF8040011E0A8880022E4
:1033E000001BADF80000A888ADF80400314668461F
:1033F000FFF798FF50B1BDF80000001BADF80000CA
:10340000BDF80200001BADF8020016E06888ADF8B8
:103410000200688800222044ADF806003146684664
:10342000FFF780FF70B1BDF80000001BADF8000091
:10343000BDF806002044ADF806003146684620F08D
:103440003DF8B6E7FFE70120B3E710B5B1F900405A
:10345000B2F900309C4200DA23460380B1F9024001
:10346000B2F902309C4200DA23464380B1F90440AD
:10347000B2F904309C4200DD23468380B1F9061086
:10348000B2F90620914200DC1146C18010BD000057
:10349000F8B5074622F026FD0025374C0646009574
:1034A00037B1F8686060384622F04EFE606802E08E
:1034B00014F082FF606000691FF0FCFE60684069E4
:1034C00008B11FF0F7FE6068C0691FF0F3FE606886
:1034D000006A1FF0EFFE6068016991B120F0A2F868
:1034E00024F0C8FD24F0F2FA6068B0F85011D9B3A6
:1034F0000068017CC9071DD0C0684068D0B10027B2
:1035000013E0A0F85051F8BDC11991F8301151B92C
:1035100000F5AC7000F046FC616801EBC7010A6B76
:103520000260496B41607F1CBFB26068B0F8501107
:10353000B942E9D860684FF4807130301BF0AEFAC0
:103540006068202100F598701BF0A8FA6068A0F868
:103550005051304622F0C0FC009060680068436A19
:1035600013B12268009998471BF016F900F032F861
:10357000BDE8F84000F002B84C00002070B50A4DDC
:10358000002400BFC4EBC40655F8260008B11BF0A8
:1035900077F905EB86001C211BF080FA641CE4B26D
:1035A000042CEFD370BD00002808002008494968AA
:1035B0000AE04A68824202D00A68824203D10A7E47
:1035C00042F001020A7649690029F2D170470000F1
:1035D00020000020704700000421014800F08BBB50
:1035E000400700202021014800F085BB580700203B
:1035F0002DE9FF410446DDE90A671D004FF0000098
:1036000002D1B6F5807F2BD0039001900290ADF8E7
:103610000C100090ADF80410ADF80A20ADF80E20A3
:103620003B463246294668461FF0A8FE3B463246D6
:10363000294601A81FF0A2FE3B463246294602A8B1
:103640001FF09CFE3B463246294603A81FF096FE1B
:10365000BDF90000BDF90430984209DA054608E0DA
:103660002080491E6080A180521EE280BDE8FF815B
:103670001D46BDF90820BDF90C108A4201DA164634
:1036800000E00E46B54203DA984206DB184604E035
:103690008A4201DA104600E00846801E2080BDF90B
:1036A0000030BDF90420934201DD1D4600E01546BF
:1036B000BDF90800BDF90C10884201DD064600E0A6
:1036C0000E46B54205DD934201DD194604E0114680
:1036D00002E0884200DD0146891CA180BDF902306C
:1036E000BDF90620934201DA1D4600E01546BDF9FA
:1036F0000A00BDF90E10884201DA064600E00E46C7
:10370000B54205DA934201DA194604E0114602E0B7
:10371000884200DA0146891E6180BDF90230BDF998
:103720000620934201DD1D4600E01546BDF90A0062
:10373000BDF90E10884201DD064600E00E46B54296
:1037400005DD934201DD194604E0114602E088429E
:1037500000DD0146891CE18088E700002DE9F04189
:1037600015460E460746114C22F0BCFB80462B4600
:1037700032463946204618F0E9FF20B10020A06209
:10378000E06950B110E02C2120461BF087F94FF082
:103790000040A0620020BDE8F081404622F09CFB82
:1037A000E06108B90120E0612046F4E77C070020D1
:1037B00010B51421074800F09EFA18F08DFF40B1B3
:1037C0000549016005494160054981600549C160BD
:1037D00010BDFEE764070020B1C001082DC4010838
:1037E000F9C501087DC0010870B50D4604461021D9
:1037F00028461BF053F920680078012804D00228DD
:1038000007D0042807D008E0A08A2880E08A6880D2
:1038100003E0E06800E00A20686020684268002A4F
:1038200003D02946BDE87040104770BD2DE9FE4326
:103830000446808A10B9E08A002873D0D4F82C801E
:103840005FEA080010D120460AF0E1FC5FEA0008B8
:1038500068D020460DF018FD00220921404617F0DF
:1038600079FE607880075DD44FF4807900274E465A
:103870004546002128461DF08DFD384407B2002141
:1038800028461DF0A5FDC11700EB11600012704322
:1038900006B228461CF07CFD0500EAD10FB94E4562
:1038A0000CD0784201B24FF4803090FBF6F002B2B7
:1038B0006B4604F1140000951FF060FDADF8045054
:1038C000ADF8085094F8400000F00F00032840467F
:1038D00016D01CF0AFFE064640461CF065FD0346C0
:1038E0000C200090B4F916103246404609F07CFFD7
:1038F000ADF8080040461CF0A9FDC10713D018E040
:103900001CF02CFE064640461CF0C8FD0246032073
:103910000090B4F914103346404609F065FFADF845
:103920000400E7E736E0BDF90410002901DDADF839
:103930000450810705D4BDF90410002901DAADF85F
:103940000450410705D4BDF90810002901DDADF888
:103950000850000705D4BDF90800002801DAADF8C9
:10396000085002AA01A9204624F0CAFFBDF9082088
:10397000BDF90410404600F08AFA6078800709D447
:10398000208BBDF8041008442083608BBDF808101C
:1039900008446083BDE8FE832DE9FC5F0446C06AED
:1039A0005FEA000B71D094F8400000076DD019F069
:1039B00057FA019000684021457E58461DF034FEBC
:1039C0004FF0000818B9A4F81E80A4F81C805846CF
:1039D0001CF022FE824658461CF025FE064694F84E
:1039E00040004FF0640900F00F000C2802D00328BB
:1039F0004CD09AE0A4F81C8056B1B4F91E500027B0
:103A000019F02EFA0068407EC0F16401484622E0B9
:103A1000B4F91E00C5F16401484390FBF9F0E0835E
:103A200058461CF0C1FC054658461CF003FE0246F1
:103A30000C200090B4F91E102B46584609F0D4FE15
:103A4000E083024600231EE07A1917B201FB05F25B
:103A500092FBF0F215B2002DF6D1ADF80070A4F88B
:103A60001E806A460021204624F04AFF41F6FF727C
:103A7000BDF90030514258460AF060FDBDF8001013
:103A80000123084402B200214CE09AE0A4F81E8011
:103A9000BAF1000F0AD0B4F91C50002719F0E0F970
:103AA00000684946407EC0F1640022E0B4F91C0081
:103AB000C5F16401484390FBF9F0A08358461CF01F
:103AC000EDFC054658461CF049FD034603200090D6
:103AD000B4F91C102A46584609F086FEA083014618
:103AE00000231EE07A1917B200FB05F292FBF1F2F7
:103AF00015B2002DF6D1ADF80070A4F81C8000229C
:103B00006946204624F0FCFE41F6FF72BDF9003004
:103B1000514258460AF08AFCBDF8001001230844BF
:103B200001B2002258461EF09FFEA08B002848D10B
:103B3000E08B002845D1C6B958461CF07BFD0546F0
:103B400058461CF031FC002D06DC00280DDD002D50
:103B500002DA01232A4604E0002806DA0123404263
:103B600002B2002158461EF07FFEBAF1000F19D1B3
:103B700058461CF093FC054658461CF0EFFC002DFF
:103B800007DC00280EDD002D03DA01230022294680
:103B900005E0002806DA01230022404201B258461F
:103BA0001EF062FE0A215846019A17F0D3FC607895
:103BB000800706D414F8400F20F00F00207044F85E
:103BC000148CBDE8FC9F7FB50E46040003D114F0B1
:103BD000F3FB04002CD014F063FC002828D094F8E8
:103BE0002800400724D4002506B3ADF80050ADF8F6
:103BF0000250204614F0F8FB401EADF804002046A9
:103C000014F038FC401EADF806006A46314602A8A2
:103C1000FFF7A0FA00280BD02068017C890708D59F
:103C2000DDE90001C4E90C01012029E0A4F85051AC
:103C30007FBD82690AB102A9904700260AE004EB21
:103C4000C601002202A83031FFF7ACFA0028EFD1FC
:103C5000761CB6B2B4F85001B042F0D880B2202839
:103C600004D204EBC00002A9303004E0A4F85051A3
:103C700004F13000694612F009F9B4F85001401C13
:103C8000A4F8500160680028D2D022F069FA7FBD04
:103C900070B5054600F012F804460CE021462846AF
:103CA00000F01EF806462146284600F0A2F82046FD
:103CB0001AF0E6FD3446002CF0D170BD002800D08B
:103CC0004068704700B503460022FFF7F7FF03E0A6
:103CD0001846521C00F004F80100F9D1104600BD4E
:103CE0000068091D40587047006840587047002818
:103CF00000D08068704700224260C91C21F0030197
:103D000082600160704770B50446006808301AF0A0
:103D10002BFD050013D001460022204623F038FA7F
:103D200029462046626823F02DFA616819B12A46B7
:103D3000204623F02DFA6560A06800B9A5602846EA
:103D400070BD2DE9F0410C4606000AD04CB1FFF7DA
:103D5000B5FFA04208D13046FFF7D5FF051E01D0C0
:103D60001EE00020BDE8F081306808301AF0FCFC4D
:103D7000051EF7D030682A4607593046394623F0E9
:103D800001FA3A462946304623F002FA2A462146ED
:103D9000304623F0FDF922462946304623F0F2F959
:103DA0002846DFE770B50446006808301AF0DCFCEE
:103DB000050013D001460022204623F0E3F92946EE
:103DC0002046A26823F0E4F9A16819B12A462046EA
:103DD00023F0D8F9A560606800B96560284670BD19
:103DE00028B1416809B9806808B1002070470120F6
:103DF000704770B504000DD0FFF760FF00228842C5
:103E0000204608D1FFF76CFF6060011E01D0002240
:103E10001EE0A26070BDFFF76AFF88422068084478
:103E20000AD10168A16029B12046BDE87040002296
:103E300023F0A8B9626070BD05682046FFF750FF07
:103E4000064602462946204623F09CF92A4631467A
:103E50002046BDE8704023F09BB910B504460068C9
:103E600082680AB12146904720680068002801D086
:103E70002060F5E710BD8068002801D0B0F9160079
:103E800070478068002801D0807E8009704770B537
:103E9000164605460C4651EA06001AD028461BF085
:103EA00063FBA86801233246018A21440182A86885
:103EB000418A31444182214628461DF02DFF0022CF
:103EC0000B21284617F046FB012803D128461DF098
:103ED0007DFE012070BD77B581B00E46050017D07C
:103EE00062221DF085F9040012D0206880B12846B6
:103EF000314663221DF07CF910F0FF0208D02368E0
:103F00002046039998470090BDF80000ADF80C00DA
:103F1000039804B070BD00002DE9F047074692B049
:103F2000408C1A9E40F00400788490463A8499466A
:103F30008A46328938461DF05BF90546A7F820907D
:103F40003289514638461DF053F90446788CA54213
:103F500020F00400788403D12904B1EB044F68D029
:103F6000A7F820803289514638461DF041F90546B0
:103F70008046A7F82090514638460BF0A1FE3189C3
:103F800000682A4620F002FE30890B2823D147F62C
:103F9000FF794D4501D04C451DD138461DF0FBFA47
:103FA00000EBD070451038461CF0B1F900EBD07032
:103FB0004010C84506D1691C431C994200DA00E054
:103FC000194688464C4506D1691C421C914201DACB
:103FD0006C1C00E014461948FFF795FE05002BD035
:103FE0002F60C5E903843089A8806846C5F808A019
:103FF00011F062FA1248FF21CDE9005011480290F9
:104000001148039000200890CDE9090130880B90F9
:1040100070889DF8421040420C90F0680790002094
:1040200060F300018DF8421030690690684611F087
:10403000B7FA12B0BDE8F087FEE700007007002075
:1040400071D202085DD40208B9D3020814210148D4
:10405000FFF751BE700700202DE9F84F002590466C
:10406000894606462C460427E5E000BFF16807EBC9
:10407000C400085882017AD480B230EA090211D013
:104080005FF0000230EA08000ED0002082426ED0BD
:1040900051F834A06A461021504620F0D5FA002885
:1040A00071D103E00122EDE70120EFE76A4611211B
:1040B000504620F0C9FA002865D16A4612215046C0
:1040C00020F0C2FA00285ED16A461321504620F043
:1040D000BBFA002857D16A461521504620F0B4FAA1
:1040E000002850D16A461421504620F0ADFAE8BBB2
:1040F0006A460A21504620F0A7FAB8BB6A466B21EF
:10410000504620F0A1FA88BB6A466C21504620F048
:104110009BFA58BB6A460121504620F095FA28BB0D
:104120006A460421504620F08FFAF8B96A46022107
:10413000504620F089FAC8B96A460321504620F05B
:1041400083FA98B96A460521504620F07DFA68B98D
:104150006A460621504620F077FA38B96A4632217D
:10416000504620F071FA08B96A4601E00BE061E0C0
:104170006E21504620F068FA28B96A466D215046F3
:1041800020F062FA10B10320BDE8F88F6A46692179
:10419000504620F059FAE8BB6A466A21504620F0A2
:1041A00053FAB8BB6A466E21504620F04DFA88BBE0
:1041B0006A466D21504620F047FA58BB6A463721BF
:1041C000504620F041FA28BB6A463821504620F07C
:1041D0003BFAF8B96A463521504620F035FAC8B99D
:1041E0006A464021504620F02FFA98B96A46452188
:1041F000504620F029FA68B96A464121504620F01D
:1042000023FA38B96A464221504620F01DFA08B90F
:104210006A4600E00AE04321504620F015FA28B92A
:104220006A464921504620F00FFA08B1022501E004
:1042300005B90125641C708CC0F3C500A0423FF68F
:1042400015AF2846A0E7000001484068704700000D
:104250004C0000207047C0F30410072800D9072045
:1042600070470000A0F57F41FF3905D0002804D039
:10427000712803D208490AE01F20704707497138A6
:1042800080B2096829B1064A5268904201D2085C9E
:10429000704700207047000058540308B801002000
:1042A000CC01002010B518210348FFF724FD034975
:1042B0000120087010BD00001C070020D401002060
:1042C0002DE9F04190460C46050015D0FCF756F953
:1042D0000A4F06462146BA68284690470446BA68FF
:1042E0002819414690470146701A03E06218AA5CFB
:1042F0002A55641CA042F9D2BDE8F081E8010020F3
:104300002DE9F041094D90460E466A681C46074665
:1043100019469047306020B120686A68384400210F
:104320009047C8F80000BDE8F0810000E8010020D7
:104330002DE9F04F87B08A46DDE910581F469346B5
:104340000446002105B129805CB12078002809D0FD
:10435000BAF1000F05D0002618F0060F15D0002086
:1043600004E0002007B0BDE8F08F401C215C0A2962
:1043700004D00D2902D00029F7D100E0401C002D07
:10438000F0D04FF0FF312980ECE75FEA887001D56B
:1043900041F6FF77894608468DF81410049127E00E
:1043A0000498CDF8189068B34FF0000C05AA06AB3E
:1043B000CDF80CC0CDF80080CDE9013220443B4659
:1043C0005A46514622F00EF806997A1A314417B22D
:1043D0000EB288B104990144049120780A280BD0C8
:1043E0000D2809D0605C0A280FD00D280DD0084692
:1043F000205C08B1002FD3DC049848B105B12E80B1
:104400000498AFE74FF0010CD0E7481C0490F3E7A5
:10441000064A04A9204652689047002DF0D0014674
:104420000022504617F0AAF906B2E8E7E80100209A
:104430002DE9F0411746884606001ED0002F1CD0FB
:10444000FCF79CF804463846FCF798F8050014D0B1
:104450000B4A2C444146926830469047411903E08C
:10446000621BB25C3255641EA142F9D930442A461F
:104470003946BDE8F0411AF0D3BABDE8F08100003A
:10448000E801002000230278232902D0012A0DD060
:104490000FE02AB10021012A04D0022A04D008E04A
:1044A000012101E0017004E0017001E0202902D047
:1044B0000123184670470221F6E72DE9F0410E4628
:1044C0008046024600213346084622F0C9F90446D8
:1044D0000027401C1AF048F9050008D02F55334634
:1044E0004246611C22F0BCF92846BDE8F081FEE797
:1044F0002DE9F0471E4614460D468246DDF8209011
:1045000015E000BF4FEA540808FB065739465046ED
:104510004A469047002808DD44F30000C0EB5404ED
:1045200007EB0605A4F1010401E005DA4446002C7E
:10453000E8D12046BDE8F0873846FBE72DE9FC5F6F
:104540009B460CAB8A468146DDE9116093E8121068
:10455000DDE90F575FEA80784FF030031AD45EB17F
:104560005FEAC07808D000F00C0858EA0C0803D0C5
:10457000761E01E00B55641CBC4204D2202CF9D3FA
:1045800001E00B55641C5FEAC07803D0B44201D24D
:10459000202CF6D35FEAC06825D55FEA40580AD4DC
:1045A0004CB1BC4201D0B44205D1641E03D0102DE1
:1045B00003D1641E04E0102D02D0022D0AD00EE0BB
:1045C000850603D4202C1ED2782506E0202C1AD292
:1045D000582502E0202C16D262250D55641C202C93
:1045E00011D20B55641C202C0DD2BCF1000F01D050
:1045F0002D2306E0430701D52B2302E0030702D554
:1046000020230B55641CCDE900BAC84615468146E7
:104610008B46AA46800714D1274607E02A46DDE9E3
:1046200000316D1C2020C446E0477F1CB742F5D303
:1046300007E02A466D1C641EDDE900311BF804000A
:10464000C047002CF5D15FEA897006D409E02A46FC
:10465000DDE900316D1C2020C047A5EB0A00B04207
:10466000F5D32846BDE8FC9F2DE9F04F8FB0994661
:104670008B46DDE91818DDE91C63DDE91A4792462F
:104680008646002209B923F01003580507AD00D56E
:10469000C9B1B1FBF4F004FB1010C0B20A2801D27A
:1046A000303009E05FEA836C02D54FF0410C01E045
:1046B0004FF0610C60440A38B1FBF4F1A854521C6D
:1046C00009B1202AE5D3CDF80880CDE90563CDE90D
:1046D0000052CDE903474B46524659467046FFF714
:1046E0002DFF0FB0BDE8F08F2DE9FF4F8FB01CAC50
:1046F000DDE9239594E8030820AC94E8C004002485
:1047000050EA010201D125F010056A050DF11C08DF
:1047100002D550EA010217D032463B46FBF7A6FD10
:10472000D2B20A2A01D2303206E0AB0601D54123CB
:1047300000E061231A440A3A08F80420641C50EA95
:10474000010201D0202CE7D3CDE90084CDF808B0D8
:10475000CDE90595CDE9036A0FAF97E80F00FFF7A4
:10476000EDFE13B0BDE8F08F9A4200D28854704736
:10477000704700002DE9FF4F89B005460A980024D4
:104780009246002800D1FE4D8FE1252804D0224614
:10479000641C53460A990BE2491C4FF00008084676
:1047A0000C9101782B2919D004DC202919D0232958
:1047B00004D119E02D290ED0302909D00026C8B225
:1047C000FEF704FCB0B10CA8FEF7E9FB06461FE0BB
:1047D00048F001010AE048F0020107E048F0040156
:1047E00004E048F0080101E048F01001401C884650
:1047F0000C90D6E70C9908782A2809D1169840C859
:104800001690002E02DA48F002087642491C0C91FC
:104810000C984FF0000B01782E2919D1401C0C90F8
:1048200048F480680078FEF7D1FB20B10CA8FEF7B1
:10483000B6FB83460CE00C9A10782A2808D116990A
:1048400001C91691002800DC0020521C83460C92FE
:104850000C9801786C290AD004DC68290FD06A29E9
:1048600019D128E0742929D07A2914D126E0401CD6
:104870000C90017848F480786C291CD00BE0401C27
:104880000C90017848F08008682904D148F0400174
:10489000401C88460C9001460078692822D015DC1F
:1048A00062281FD00DDC252872D050281AD0582835
:1048B0007FF46DAF16E048F40071E9E748F48071C9
:1048C000E6E7632879D06428F2D10BE0732875D02D
:1048D00004DC6F2806D07028EAD103E0752801D0E7
:1048E0007828E5D178280DD058280BD070280BD027
:1048F000502809D06F2816D0622816D00A2228F036
:10490000100016E0102207E04878102248F488785A
:10491000562804D1491C0C910878582807D00878EB
:10492000502804D006E0082209E0022207E048F0FF
:10493000200080460878692803D0642801D028F038
:104940000C085FEA485001D528F00108087869286A
:104950001FD064281DD0562864D05FEA885072D5D5
:104960001698CDF818B0C01D0021CDE904210291A0
:10497000CDE9076820F007005346F0E80212CDE9C0
:1049800000121690224628460A99FFF7ADFE88E0ED
:1049900009E15FEA885022D5169804AFC01D20F0C7
:1049A0000703F3E802011693002387E80C08CDE91A
:1049B0000768002903DA012202E07FE0A6E0002276
:1049C000002302921A461B1A8A4103DB002240424E
:1049D00062EB010153462246CDE90001D3E75FEACD
:1049E000C85004D5169901C90FE0404215E05FEAAE
:1049F000486003D5169911F8040B06E05FEA0860D9
:104A0000F0D5169931F8040B00B21691CDE9022BBE
:104A1000CDE90468C10F0028E7DD53462246CDE901
:104A200000013AE01699AAEB040201C91691416807
:104A30000968009103680A9801192846FFF79AFE51
:104A400004442FE0FFE75FEAC8500CD5CDE9022B04
:104A5000CDE9046816980021534604C8CDE9002129
:104A60001690224619E05FEA486003D5169810F8C0
:104A7000041B08E05FEA0860169803D530F8041BB1
:104A800089B200E002C8169001AF0020009187E8CB
:104A90000508CDE904685346224628460A99FFF7DF
:104AA000E3FD04460C98401C0C900C9908780028F3
:104AB0007FF46BAE54457DD222467DE001275FEA4C
:104AC000887006D509E02246641C534620200A99C6
:104AD000A84738467F1CB042F5D316982246641C7E
:104AE00010F804CB1690534660460A99A8475FEA2F
:104AF000887006D4D6E72246641C534620200A99C3
:104B0000A84738467F1CB042F5D3CBE7169850F83B
:104B1000049B16904B46BBF1000001D0014601E01A
:104B20004FF0FF31484600E0401C02780AB1491EB0
:104B3000FAD2C71A5FEA485003D558465F4500D3FA
:104B400007465FEA887006D511E02246641C53468A
:104B500020200A99A84738467F1CB042F5D306E0CA
:104B6000224609F10109641C53460A99A84799F89D
:104B7000000040B15FEA4851F2D5BBF1010B01E002
:104B800071470008ECD25FEA887006D48AE72246B3
:104B9000641C534620200A99A84738467F1CB0421F
:104BA000F5D37FE706E02246641C534625200A9988
:104BB000A84777E7AAF10102534600200A99A847BF
:104BC0000DB02046BDE8F08F10B502004FF0000098
:104BD0000CD04B1E194200D0FEE70A44521E9A43E5
:104BE000B2F5803F02D20C2A01D9104610BD0C202C
:104BF00010BD08444A1E401E9043114200D0FEE7FB
:104C0000704700002DE9F0410F46012100250446C0
:104C100041862E460BE01B49FBF728FD10B16D1CA9
:104C2000ADB202E0608E401C6086761CB6B257F8CA
:104C3000260010B101780029EDD1208EA8421ED0A7
:104C4000A06A002610B119F01BFEA662E06A10B13E
:104C500019F016FEE662E80019F086FDA06238B190
:104C6000680019F081FDE06218B1A16A11B102E09B
:104C7000FEE7FEE70025690019F010FF2586BDE874
:104C8000F0810000F46801082DE9F84F8146407A70
:104C90000F4600F00700022819D0104680469742C0
:104CA00000DD3A46164603202A4C2B4A00EB46000C
:104CB00020F00305A06811681035411A636805EB00
:104CC000010C9C4505D2416821F0004124E00846D2
:104CD000E4E79D4219D892464FF0FF3B48196168BE
:104CE000884210D9002269461C48CDF800B00CF06B
:104CF000A5FE002269461A480CF0A0FEA168DAF869
:104D00000000091AEAE7A068DDE7284619F02CFD43
:104D1000C0B1416841F0004188EA6702416089EA18
:104D200002010160416801F04041491C31F08041BD
:104D300041608681A0F80E8005D500F110018160E8
:104D4000BDE8F88FFEE7A16801F1100229448260F6
:104D5000A160F5E754000020B4010020FDE1000847
:104D6000C11A010870B586B000224A4C8DF808209F
:104D70008DF80C208DF81020E2888A4201D0FF22A5
:104D8000A270E18090F83C20142302F003024FF45B
:104D9000B475012A24D0022A5ED0A578AA4211D087
:104DA00010F8265F05EB051505EB4505B5FBF3F59A
:104DB0002570407800EB001000EB4000B0FBF3F0F2
:104DC0006070A27004AA03A8CDE9000201EB4100C3
:104DD0004FF6FF7101EA400002AB627821781BE0D8
:104DE000A678B24210D0868C06EB46067602B6FB59
:104DF000F5F5A58090F8270000EB001000EB4000CF
:104E0000B0FBF3F06070A27004AA03A8CDE9000221
:104E1000C9B202AB62783AE008F008FF9DF81010C2
:104E20009DF80C00CB08BDF800109DF8082063F336
:104E30000401ADF800108108BDF8000061F34A10CC
:104E4000D10880B261F3CF20ADF8000080B20090AD
:104E5000BDF8000006B070BDA678B24210D0868CB6
:104E600006EB46067602B6FBF5F5A58090F826001F
:104E700000EB001000EB4000B0FBF3F02070A270DC
:104E800004AA03A8CDE90002CAB2217802ABA08827
:104E9000C2E700000001002010B5084C012020707E
:104EA0000748FEF70BFF0028A06803D0BDE81040BC
:104EB00021F056B9BDE8104021F046B98C01002020
:104EC0004C07002010B5044690F84200A16B820701
:104ED00009D4B4F840204AB1A2F57F43FF3B1BD070
:104EE000521EA4F84020B4F84020AAB909B18207A4
:104EF00012D521461448FEF77CFFFFF7CDFFE1688D
:104F000009B120468847216909B1204688472046D3
:104F1000BDE8104019F0B4BCE26B52422263002994
:104F200011D0820702D4626B524222634210521C9B
:104F300062F3410084F84200A26A206A2262A06201
:104F4000E06AE162A06310BD4C07002070B5304DEF
:104F5000686820F0C1FF0646687880F0010068703C
:104F600047E00020287094F842006978C0F380027E
:104F70008A4242D061F3820084F84200216B8A1990
:104F8000030719D4002917DC002A15DBC00709D153
:104F9000616939B120468847216A01442162A16ACA
:104FA0000844A062A16809B12046884794F84200ED
:104FB00040F0080084F84200206B8019206316D46A
:104FC000E16A884200DD2163E169204688470146A5
:104FD000606A884204D0616262680AB120689047C2
:104FE000D4E90B01814202DB2046FFF76BFF2878F2
:104FF00018B10848FEF762FE03E021460548FEF7B7
:105000006FFE0400ADD120F06DFF686070BD000040
:105010008C0100204C07002070B5044640680D4606
:1050200008B1FFF7F9FF2268002A04D0294620467C
:10503000BDE87040104770BD89B210F08CBE89B2D7
:1050400010F0C5BE2DE9FF4F99B09846DDE926B1B5
:105050002D9816468A464FF00009042811D00528DD
:1050600011D0062812D0142873D10127022508FB7D
:1050700006F00E901A980024401E0D90701E0690A7
:105080004AE10027F2E701270325F0E7012702257F
:10509000FFF7DAF80068D0F83890E8E7289860431E
:1050A0000BEB2022299860430AEB202110124FEAD3
:1050B000212E7DD41A9B98427ADABEF1000F77DB5D
:1050C000B645F9DAD3B201F0FF0C802B05DAC3F153
:1050D0007F014FF0FF32490003E001225900A1F5A2
:1050E00080710991BCF1800F05DACCF17F034FF09C
:1050F000FF315B0004E04FEA4C030121A3F580730C
:105100000A930EFB080C199B0CFB053307938318BD
:1051100011937BD4DDF834C0634577DC1EEB0103CB
:105120000F9373D4DDF818C063456FDC079B01FB58
:1051300008F102FB053201FB053116929C460C91E9
:10514000BFB32D99052905D014290AD006294CD0C2
:1051500059E0E5E00C989CF8022081781698807858
:1051600010E0199A0E9902EB41010B180EFB081181
:10517000119817930EFB08F2085C0F99D25C01FBA3
:1051800008F1C95C914207D00A9B5943C3F580736B
:1051900002FB0311C1F30721904207D0099B58433A
:1051A000C3F5807302FB0300C0F30720084401E04D
:1051B0009AE02CE02C99400808555FD09CF800102C
:1051C0009CF8010001EB0020ADF80C000C98017870
:1051D000407801EB0020ADF8100016980178407877
:1051E00001EB0020ADF808001FE0BCF800101FFA2A
:1051F00089F0814278D00C990988814274D016993F
:105200000988814270D0FF210846CFE737E0BCF81B
:105210000000ADF80C0016980088ADF8080008886A
:10522000ADF810002C98FF210155BDF80C00BDF819
:105230001010884209D1BDF80810884205D12B987A
:10524000BDF80C1000EB440017E00A98C2B2DDE98B
:10525000031012F087FC04900998C2B2DDE9020144
:1052600012F080FC7F220290049912F07BFC0090E7
:105270002B98BDF8001000EB440001804AE0079B2A
:1052800093F800C05B780CEB0323DDF8ACC09BB255
:105290002CF81430DDF8B4C0BCF1050F06D0BCF119
:1052A000060F06D0BCF1140F09D10AE0079B9B78CA
:1052B0000FE01FFA89FC634501D1002309E0FF23B9
:1052C00007E0199B0EFB083C0E9B00EB43031CF808
:1052D000033008B9002A05DBDDF834C0604504D18D
:1052E000002A02DD09980BE011E0BEF1000F01D1A8
:1052F000002904DB069A964509D1002907DD0A98A2
:10530000C0F1FF005843010A2C98015502E02C9986
:1053100000200855641C24B22A988442FFF6BEAED1
:105320001DB0BDE8F08F0BF0A3B870B514460D4664
:10533000064606E03046711C8EB200F006F805F80D
:10534000010B641EA4B2F5D270BD10B504460BF07B
:1053500035F9200AA02101EB4000C0B20BF002F9A0
:105360000BF06EF9E0B20BF0FDF80BF069F90BF001
:1053700025F9A1200BF0F6F80BF062F900200BF0F4
:10538000C3F804460BF03EF9204610BD70B5164632
:105390000C46054606E02178284600F007F86D1C0B
:1053A000ADB2641C761EB6B2F5D270BD70B50D46B6
:1053B00004460BF003F9200AA02101EB4000C0B223
:1053C0000BF0D0F80BF03CF9E0B20BF0CBF80BF09F
:1053D00037F928460BF0C6F80BF032F90BF012F94A
:1053E000BDE870400A20FCF739BA000010B5818F83
:1053F00092B00446A9B1684610F05EF80B4801214E
:10540000CDE90040A08F0B9000200890CDE9090164
:105410000748079007480390684610F0C1F812B09B
:1054200010BD12B0BDE8104022F030B8057502087A
:10543000775501080775020810B5044640688208D0
:105440000AD0496821F00301091D08446060204624
:1054500000F042F8204610BDFEE74068103120F011
:105460000300884201D301207047002070472DE9D6
:10547000FC47054648680C4620F0030001AA69462F
:1054800021F022FDDDE9007005EBC71101EB800979
:105490008046D9F83C0060B164B1C4E9020504F16A
:1054A0000806C46030460421FFF7A3FB864202D001
:1054B000FEE7FEE7FEE7C9F83C400120296900FA53
:1054C00007F21143296105EB870100FA08F04A69E8
:1054D00002434A61BDE8FC8710B5044600F087F836
:1054E000046010BD2DE9FC4706464FF000000D009A
:1054F00000900746019042D00C46E9460DF10408A1
:10550000802907D3084627F0EFF9411F0120884082
:10551000401E044442464946204621F0D5FC009CEA
:105520000A2C2CDA06EB8400019A40694FF0FF3117
:1055300001FA02F210400CD1641C3069A14008400D
:105540001DD027F0C9F90446009006EB80004069A1
:1055500078B127F0C1F9034606EBC411019001EBC5
:105560008000C76B5FB1786820F00300A84201D2C9
:10557000FEE7FEE739463046009A22F0C9FE38467B
:10558000BDE8FC8710B50446FFF7A6FF416841F06F
:1055900002014160606840F00100606010BD10B51C
:1055A000044600F024F8416821F00201416060687F
:1055B00020F00100606010BD70B506460D4608463B
:1055C00000F015F8040010D02079C0070BD06868EF
:1055D00080080BD02146304600F03CF82146284692
:1055E000FFF72AFF0546284670BDFEE7FEE7426842
:1055F00000F1080122F00300001F0844910800D1C7
:10560000FEE7704770B506460C004FF000001ED054
:10561000F2B120791546C0071BD011462046FFF78E
:105620001CFF78B12946204600F025F805462046A3
:10563000FFF752FF6868294640F002006860304674
:10564000FFF715FF2046FFF7AAFF04F1080070BD21
:10565000FEE7FEE77CB5054648680C4620F00300EF
:1056600001AA694621F030FCDDE9002321462846E5
:1056700022F04EFE7CBD2DE9F0410D46044600F1BE
:105680000801281F0E18606806F1080720F00300C3
:10569000401BA0F1040838460421FFF7AAFA87420C
:1056A00000D0FEE7606820F0030108EB0500001D54
:1056B000814200D0FEE7307900F0030040EA0800A4
:1056C000706020F003000C2800D2FEE7207900F083
:1056D0000300284360603046FFF754FF3046BDE8C2
:1056E000F08138B5044617F0BBFB054617F0EDFB1B
:1056F0000028204605D0218FE1861CF067FA0120A2
:1057000038BD15F0E5FC002820461ED015F0B2FB90
:10571000218FE08E81420CD02087E08E00906A4677
:105720001C21204615F016FF0128E9D120461CF067
:105730004DFA284617F0D5FB0428E0D120461AF090
:10574000E1FD002116F00BFCD9E715F01DFDD6E7B1
:1057500070B515F0FBFE05461AF01AFE0446284601
:1057600011F090F901462046BDE8704000221FF07C
:10577000E1BE00002DE9F04F0D4687B00446002140
:105780001AF0F4FC60B32946204600F061FA29467D
:10579000204600F06FF8002120461BF015FC059014
:1057A000002120461BF0C4FC0490002120461BF081
:1057B000D6FA012800D000208046002120461BF0A8
:1057C00019FE0746002120461BF044FB42F2D17926
:1057D00006464F450BD1608C400508D4012707E0F1
:1057E00007B02846BDE8F04F1C2119F057B9002733
:1057F00020461AF039FDDFF878A0834620460021C4
:10580000BAF804201BF0F4FCD5F810C0AB68296886
:10581000CDF800C0CDF80C80CDE90131C2B23946D7
:105820005846059B0AF0BEFA28834E4504D1608C89
:10583000800501D4012600E0002620461AF0FAFC7B
:10584000074620460021BAF808201BF0D1FCC2B25E
:10585000686900246B68E9688DE81B0031463846AA
:10586000049B0AF09FFA688307B0BDE8F08F000040
:10587000740000202DE9F34F81B00C46019809F027
:1058800013FD064601981AF0EFFC8246304600F000
:10589000DEFF2061400018F095FF20602069400085
:1058A00018F090FF002541F69A79A0603AE036F9A9
:1058B0001510DFF82081494533D10027DFF818B1F2
:1058C0001FE0394601981AF051FC594600901BF030
:1058D000B2FEA8B9009809F0F9FC012810D100988F
:1058E00009F0EAFCA8420BD100981BF054FE414697
:1058F000404501DA084602E000981BF04CFE804665
:105900007F1C01981AF044FCB842DAD8B8F1000FB5
:1059100003DBA16821F8158003E0A168002021F8CD
:1059200015006D1C2069A842C1D800252F462846C5
:1059300041F69B784A4615E036F91010414504DBE4
:105940000D44A5F5F8559B3D0BE0914204D1A168AB
:1059500031F81010394403E0A36823F810103944DB
:105960000FB2401C21698142E6D8002101981BF04A
:105970002BFB2169C1F1010200FB02A0C01B00B298
:10598000002800DA002000224FF0FF331146C44601
:1059900011E000BF36F9117067450BDBA7F5F8572A
:1059A0009B3F3AB200FB02F3B3FBF5F3A76827F87D
:1059B00011300B46491C27698F42EBD8002B07DBBF
:1059C000A91A4143B1FBF5F1401AA16821F813006F
:1059D000BDE8FE8F01E0FFFF010006002DE9F14F59
:1059E0000022114600981DF081F8002100981BF05C
:1059F000EFF90446002100981BF0ACFB20440FFA9D
:105A000080F9002100981BF097FA20440FFA80F8E3
:105A100000981BF051F900EB090101EB0800DFF8D9
:105A200098A006B2544600981AF0B2FB074600252B
:105A30002AE0009821498068006850F825008346D4
:105A40001BF0F9FDF8B958461CF018F940BB0021CD
:105A500058461BF055F918B3012821D002281FD051
:105A600003281DD0002158461BF0DCFC58B9BBF8B8
:105A70001A10BBF81600081A401C00B24844A04295
:105A800000DB044624B26D1CBD42D2D3544504D081
:105A900004EB080000B2B04200DC3046BDE8F88FED
:105AA0000098BBF91A10B0F91600081A411CA1425F
:105AB000E8DB0C46E6E7000001E0FFFF0100040020
:105AC0002DE9F84F0022804611461CF0F9FF002115
:105AD00040461BF07DF90446002140461BF0E0FAE9
