:020000040800F2
:10000000F00D002001010008310E0008A10C0008CD
:100010002D0E0008610900081B18000800000000F0
:10002000000000000000000000000000C9110008EE
:10003000890B000800000000330E0008B51200080C
:100040001B0100081B0100081B0100081B01000820
:100050001B0100081B0100081B0100081B01000810
:100060001B0100081B0100081B0100081B01000800
:100070001B0100081B0100081B0100081B010008F0
:100080001B0100081B0100081B0100081B010008E0
:100090001B0100081B0100081B0100081B010008D0
:1000A0001B0100081B0100081B0100081B010008C0
:1000B00019130008451300081B0100081B01000864
:1000C0001B0100081B0100081B0100081B010008A0
:1000D0001B010008D91500081B0100081B010008BE
:1000E0001B0100081B0100081B010008DFF80CD0F1
:1000F00000F0FCFA00480047A5240008F00D00209D
:100100000648804706480047FEE7FEE7FEE7FEE7B1
:10011000FEE7FEE7FEE7FEE7FEE7FEE7B9120008AE
:10012000ED00000840EA01039B0703D009E008C97D
:10013000121F08C0042AFAD203E011F8013B00F8AC
:10014000013B521EF9D27047D2B201E000F8012BF8
:10015000491EFBD270470022F6E710B513460A4647
:1001600004461946FFF7F0FF204610BD421E12F864
:10017000013F002BFBD111F8013B02F8013B002BA2
:10018000F9D17047421C10F8011B0029FBD1801ADD
:100190007047034611F8012B00F8012B002AF9D112
:1001A000184670472DE9FE4F804681EA0300C00FD4
:1001B0000C46009021F0004123F00045B8EB02000E
:1001C000A94105D24046214690461C460B460246B0
:1001D00023F00040104347D0270DC7F30A00C3F3B4
:1001E0000A510290401A019040286BDAC3F31300C1
:1001F00040F4801B0098924620B10023D2EB030A02
:1002000063EB0B0B01985946C0F14002504600F0D9
:10021000BEF906460D4650465946019A00F0C6F909
:1002200010EB08006141002487EA115284EAE77369
:100230001A4340D0009A62B3019A012A4FEA07524A
:1002400015DC001B61EB02014FF0004202EA07528D
:10025000CDE90042001C41F5801132462B4600F0EA
:10026000C6F903B0BDE8F08F40462146F9E7001B10
:1002700061EB0201001C41F5801300185B4120185E
:10028000A2F5001747EB030140EAD570B6196D419E
:1002900011E06D084FEA360645EAC0754FEA07528D
:1002A000001B61EB0201001C41F5801149084FEA77
:1002B00030000019514132462B4603B0BDE8F04FE3
:1002C00000F086B90098012240000023D0EB020222
:1002D00063EBE073009821464FEAE074B8EB00004E
:1002E00061EB0401E9E783F000435BE781F0004143
:1002F00058E72DE9FE4F81EA030404F0004421F0A1
:10030000004100944FF0000B23F0004350EA010439
:100310005ED052EA03045BD0C3F30A54C1F30A551A
:100320002C44A4F2F3340194A0FB0254C1F3130152
:1003300041F48011C3F3130343F4801301FB02441F
:1003400000FB034E840A970A44EA815447EA835724
:10035000A4FB076802958D0A05FB07854FEA932CDD
:1003600004FB0C542705029D4FEA065847EA16374E
:10037000B5EB08056EEB070C870E920E47EA811766
:1003800042EA8312A7FB0201B6EB0B0164EB000407
:100390002B0D43EA0C335E1844EB1C50DA465146F1
:1003A000E7FB0201C5F313044FEA0B3343EA14538E
:1003B0004FEA0432019C43EA0603A4F10C040294C0
:1003C000009CCDE900B400F012F903B0BDE8F08F55
:1003D00000200146F9E72DE9F04D81EA030404F01D
:1003E000004B21F0004514464FF0000A23F0004175
:1003F00050EA050220D054EA01021DD0C5F30A5785
:100400000246C5F31303C1F31300C1F30A5640F4C7
:10041000801543F48013A7EB0608101BD64608F29C
:10042000FD3873EB050002D308F1010801E09218D2
:100430005B41B8F1000F03DA00200146BDE8F08D02
:1004400000204FF48011064684460EE0171B73EB24
:10045000050705D3121B63EB050306434CEA010CA9
:1004600049084FEA300092185B4150EA0107EDD18C
:1004700052EA030012D082EA040083EA050108432D
:1004800005D0101BAB4106D20122002306E000225A
:100490004FF0004302E06FF0010253101AEB060028
:1004A0004CEB085110EB0A0041EB0B01BDE8F04D9D
:1004B00000F08EB80EB540F2334102910021CDE933
:1004C00000110A460B4600F092F803B000BD000090
:1004D00030B5041E71F1000404DB4FF000444042CB
:1004E00064EB0101141E73F1000405DB1C464FF0A0
:1004F0000043524263EB04038B4208BF824230BD8B
:1005000030B50B46014600202022012409E021FAE3
:1005100002F59D4205D303FA02F5491B04FA02F5E0
:100520002844151EA2F10102F1DC30BD2DE9F05F77
:100530000546002092469B46884606468146402452
:100540001BE0284641464746224600F0E1F8534664
:100550005A46C01A914110D311461846224600F05F
:1005600016F82D1A67EB01084F462246012000219C
:1005700000F00DF817EB00094E41201EA4F1010414
:10058000DFDC484631462A464346BDE8F09F202A34
:1005900004DB203A00FA02F1002070479140C2F1DA
:1005A000200320FA03F3194390407047202A06DB0A
:1005B000CB17203A41FA02F043EAE07306E041FA31
:1005C00002F3D040C2F1200291400843194670471F
:1005D00010B5141E73F1000408DA401C41F100014B
:1005E00092185B411A4301D120F0010010BD2DE9A2
:1005F000F04D92469B4611B1B1FA81F202E0B0FA99
:1006000080F220329046FFF7C2FF04460F4640EAD0
:100610000A0041EA0B0153465A46084313D01146DB
:1006200053EA010019D0C8F14002504600F070F8BA
:1006300005460E46504659464246FFF7A8FF084376
:1006400005D0012004E020463946BDE8F08D0020A9
:10065000054346EAE0762C4337430A986305E40AEB
:10066000A0EB08000022FD0A44EA47540A3002D5F4
:1006700000200146E9E7010510196941DDE9084557
:1006800000196941BDE8F04DA2E7C1F30A52C1F378
:10069000130140F2FF3341F480119A4202DA002044
:1006A0000146704740F233439A42A2F2334202DCE1
:1006B000524200F02DB8FFF76ABF000030B5041EAB
:1006C00071F1000404DB4FF00044404264EB01018F
:1006D000141E73F1000405DB1C464FF00043524228
:1006E00063EB0403994208BF904230BD064C074DAE
:1006F00006E0E06840F0010394E8070098471034F2
:10070000AC42F6D3FFF7F6FCF02F000810300008DB
:10071000202A04DB203A21FA02F00021704721FA56
:1007200002F3D040C2F120029140084319467047BD
:1007300030B58C1810F8012B12F00F0301D110F80E
:10074000013B120906D110F8012B03E010F8015B00
:1007500001F8015B5B1EF9D101E001F8013B521E7B
:10076000FBD1A142E6D3002030BD00002DE9F047C7
:100770000546894616463446E01C295CA01C285CC8
:1007800041EA0027601D295C201D285C41EA002009
:1007900070490880A01D285C0106E01D285C41EA24
:1007A000004104F10800285C41EA002004F109013D
:1007B000695C08436749486004F10A0084B207F0A5
:1007C000010030B30846406800F48030D0B1601CAE
:1007D000285C295D40EA012000B25E490881E01CE6
:1007E000295CA01C285C41EA002000B259494881DC
:1007F000601D295C201D285C41EA002000B255499B
:10080000888104E000205349088148818881A01D27
:1008100084B207F0020008B300201AE04D4949688D
:10082000C14001F0010171B1012101EB40012144FE
:10083000695C04EB4002AA5C41EA022245490E31A0
:1008400021F8102004E0002242490E3121F8102046
:10085000401C1028E2DB04F1200084B207F0040001
:10086000F0B3601C285C295D40EA01203A49088009
:10087000E01C295CA01C285C41EA00203649488025
:10088000601D295C201D285C41EA002032498880D7
:10089000E01D295CA01D285C41EA00202E49C8808B
:1008A00004F10900295C401E285C41EA00202A4925
:1008B000088104F10B00295C401E285C41EA0020FD
:1008C0002549488104F10D00295C401E285C41EA5D
:1008D00000202149888104F10F00295C401E00E0BE
:1008E00007E0285C41EA00201B49C88104F11000A0
:1008F00084B207F0080000B300201CE004EB800184
:10090000695C0906012202EB80022244AA5C41EAEA
:100910000241022202EB80022244AA5C41EA022147
:10092000032202EB80022244AA5C1143094A3032BE
:1009300042F82010401C0628E0DB064800F07AFA56
:100940000648FFF71FFC80464146044800F0B0FF10
:10095000BDE8F08738030020800300201400002049
:1009600000BFFEE770B502460C46FF25FF2309E0F5
:1009700012F8010B80EA05010648405C80EA030595
:100980000548435C201EA4F10104F1D143EA05208F
:1009900070BD0000902D0008902E000800F08051DE
:1009A00011B10349086001E0024948607047000046
:1009B000040402400000024021B1026842F001023A
:1009C000026004E002684FF6FE731A40026070474E
:1009D00001684FF6FE721140016000210160416024
:1009E0008160C1604B49884208D14A490839496849
:1009F00041F00F01474A083A51608AE045491431F5
:100A0000884208D143490839496841F0F001414A18
:100A1000083A51607DE03F492831884208D13D497C
:100A20000839496841F470613A4A083A516070E007
:100A300038493C31884208D136490839496841F47F
:100A40007041344A083A516063E03249503188427B
:100A500008D130490839496841F470212D4A083AD3
:100A6000516056E02B496431884208D12949083940
:100A7000496841F47001274A083A516049E0254924
:100A80007831884208D123490839496841F07061BA
:100A9000204A083A51603CE01F49884206D1011FB4
:100AA000096841F00F01021F116032E01A49143148
:100AB000884208D11849091F096841F0F001164A17
:100AC000121F116025E014492831884208D11249CB
:100AD000091F096841F470610F4A121F116018E084
:100AE0000D493C31884208D10B49091F096841F47E
:100AF0007041094A121F11600BE0074950318842CA
:100B000007D10549091F096841F47021024A121FE3
:100B100011607047080002400804024001460020AE
:100B2000002201F0805313B1054B1A6801E0054B18
:100B30001A6802EA01030BB1012000E000207047AF
:100B4000000402400000024010B50022026847F68F
:100B5000F0739A430C6A8B6823430C6923434C69F6
:100B600023438C692343CC6923434C6A23438C6A17
:100B700023431A430260CB6843600B6883604B6871
:100B8000C36010BD4160704770472DE9F0410246D7
:100B900000250026002000230024002791F803C030
:100BA0000CF00F0591F803C00CF0100CBCF1000F15
:100BB00003D091F802C04CEA050591F800C0BCF1E1
:100BC000000F31D0146800202BE04FF0010C0CFA1C
:100BD00000F3B1F800C00CEA03069E4220D1830066
:100BE0004FF00F0C0CFA03F7BC4305FA03FC4CEA78
:100BF000040491F803C0BCF1280F06D14FF0010C9A
:100C00000CFA00FCC2F814C00AE091F803C0BCF171
:100C1000480F05D14FF0010C0CFA00FCC2F810C0CF
:100C2000401C0828D1D31460B1F800C0BCF1FF0FFC
:100C300034DD546800202EE000F1080C4FF001086C
:100C400008FA0CF3B1F800C00CEA03069E4221D169
:100C500083004FF00F0C0CFA03F7BC4305FA03FCBA
:100C60004CEA040491F803C0BCF1280F05D100F14F
:100C7000080C08FA0CF8C2F8148091F803C0BCF113
:100C8000480F07D100F1080C4FF0010808FA0CF8E2
:100C9000C2F81080401C0828CED35460BDE8F08113
:100CA00000BFFEE72DE9F04705460E460027002469
:100CB000042E70D36AE0285D012803D1601C285CF3
:100CC000032802D0601C84B260E0A01C285C471D91
:100CD0003819B0421FD9311B88B201212F4A82F83E
:100CE0002813411CA2F82A131146B1F82613091A39
:100CF000002906DD1146B1F82613091AA2F82613B9
:100D000008E0C0F54871254AB2F826231144234A69
:100D1000A2F826133EE0B91E2819FFF723FE8146EC
:100D2000B81E2044295CB1EB192F06D1781E20444F
:100D3000285C09F0FF01884202D0E01984B225E066
:100D4000E01C1FFA80F8E01984B215F80800CA28E0
:100D50000AD108F10100285CDA2805D14246314663
:100D60002846FFF703FD0DE015F80800AC2809D16F
:100D700008F10100285CDA2804D1424631462846B1
:100D800000F0B0FB00200649088000BFB44201D249
:100D9000042E90D200BFBDE8F0870000A003002021
:100DA000A601002000B58BB00121084600F006F92D
:100DB0001248FFF70DFE12480090124801901020D3
:100DC00002904FF4C870039000200490802005909A
:100DD00000200690079008904FF480500990002062
:100DE0000A9069460548FFF7AFFE012280210448BA
:100DF000001F00F048FC0BB000BD000044000240A2
:100E000004380140CC06002010B5044600210648F5
:100E1000FFF7D2FD21460448FFF7B4FE0121024846
:100E2000FFF7CAFD10BD00004400024000BFFEE70E
:100E300070477047F0B5D3B0054660224B4934A8DF
:100E4000FFF770F9E889FFF735FBCDE92C01288A17
:100E5000FFF730FBCDE92E01688AFFF72BFBCDE9C8
:100E60003001A88AFFF726FBCDE932014FF4C871A3
:100E70003F48FFF770F93F493F480422CDE9001091
:100E800034A914A801F054FB48B12CAA14A968464F
:100E900001F016FE182269460EA8FFF743F900225A
:100EA000364BDDE90E613046FFF795FACDE90601D4
:100EB0000022324BDDE910613046FFF78CFACDE9B4
:100EC000080100222D4BDDE912613046FFF783FA5D
:100ED000CDE90A0100200C900D9029A12448FFF7CC
:100EE00058F900243EE01C214CA8FFF734F90F2CE0
:100EF0001AD06868E04000F0010060B106A800EB7D
:100F0000C40003C804F14102CDE900011EA14CA8B0
:100F100000F04AFD20E004F141024FF0FF331FA131
:100F20004CA800F041FD17E06868E04000F00100C7
:100F300050B105F10E0030F8143004F141021BA14C
:100F40004CA800F031FD07E004F141024FF0FF33FF
:100F500016A14CA800F028FD4CA90548FFF706F99A
:100F6000601CC4B2102CBEDB53B0F0BD902F000843
:100F7000140000208DEDB5A0F7C6B03E000059402A
:100F8000446973743A200000416E6325633A20255A
:100F90006C6620206D202C2000000000416E63252F
:100FA000633A20256420206D202C2000416E6325AB
:100FB000633A20256420636D0D0A000029B1064ABA
:100FC00052690243044B5A6104E0034A5269824366
:100FD000014B5A61704700000010024029B1064AD7
:100FE000D2690243044BDA6104E0034AD2698243C6
:100FF000014BDA61704700000010024029B1064A37
:1010000092690243044B9A6104E0034A9269824365
:10101000014B9A61704700000010024030B500217A
:101020000022002400232D4D6D6805F00C0121B134
:10103000042905D0082923D105E0294D056022E0C7
:10104000274D05601FE0254D6D6805F47012234D96
:101050006D6805F48034022505EB92421CB9214DE0
:10106000554305600BE01D4D6D6805F400351DB15D
:101070001C4D5543056002E0194D5543056002E0E3
:10108000174D056000BF00BF144D6D6805F0F001FD
:101090000909154D6B5C0568DD4045600F4D6D68B5
:1010A00005F4E061090A104D6B5C4568DD40856020
:1010B0000A4D6D6805F46051C90A0B4D6B5C4568BB
:1010C000DD40C560054D6D6805F44041890B074D55
:1010D0006B5CC568B5FBF3F5056130BD00100240DF
:1010E00000127A0000093D000000002010000020DE
:1010F0002DE9F0470C4615464FF4A06202F00706B2
:101100002E4F39684FF6FF0739402D4F0F4347EAFE
:1011100006212A4F396000BF26462F4602F00701FC
:10112000C1F10709B9F1040F02D94FF0040901E038
:10113000C1F10709C84601F10409B9F1070F02D24C
:101140004FF0000901E0A1F10309CC464FF001097D
:1011500009FA08F9A9F1010909EA060909FA0CF9DD
:101160004FF0010A0AFA0CFAAAF1010A0AEA070A80
:1011700049EA0A0300BF02461946002A0ADA0E07A6
:101180004FEA166C0D4E0C3602F00F073F1F06F8A3
:1011900007C003E00E07370E0A4EB75400BF00BF6A
:1011A00000F01F02012191404209920002F1E02269
:1011B000C2F8001100BFBDE8F08700000CED00E0B0
:1011C0000000FA0500E400E0704710B500F002F8F6
:1011D00010BD00000CB5002001900090334800685D
:1011E00040F480303149086000BF3048006800F4A6
:1011F000003000900198401C0190009818B90198A7
:10120000B0F5A06FF1D12948006800F4003010B1AA
:101210000120009001E0002000900098012843D1B7
:101220002348006840F01000214908600846006823
:1012300020F0030008600846006840F002000860E3
:101240001A4840681949486008464068486008469E
:10125000406840F4806048600846406820F47C1094
:1012600048600846406840F4E81048600846006856
:1012700040F08070086000BF0C48006800F000700B
:101280000028F9D00948406820F003000749486069
:101290000846406840F00200486000BF03484068CC
:1012A00000F00C000828F9D10CBD0000001002402D
:1012B000002002407047000010B51348006840F05D
:1012C00001001149086008464068104908400E496D
:1012D0004860084600680E4908400B490860084607
:1012E000006820F4802008600846406820F4FE0072
:1012F00048604FF41F008860FFF767FF4FF0006001
:101300000449086010BD0000001002400000FFF812
:10131000FFFFF6FE08ED00E010B50121880700F0A0
:101320003AF840B100214FF0804000F028F8012049
:10133000034981F822030121880700F01DF810BD40
:10134000A003002010B50121094800F024F850B195
:101350000848008840F6B831884204DC0548008817
:10136000401C044908800121014800F005F810BD27
:1013700000040040A6010020CA430282704721B148
:10138000028842F00102028004E002884FF6FE73F8
:101390001A400280704730B5024600200023002426
:1013A000158A05EA0103958905EA010413B10CB118
:1013B000012000E0002030BD1AB183890B438381F6
:1013C00002E083898B4383817047000000220288FA
:1013D0001D4B98420ED01D4B98420BD0B0F1804F60
:1013E00008D01B4B984205D01A4B984202D01A4B9A
:1013F000984204D14FF68F731A404B881A43174B0B
:10140000984207D0164B984204D04FF6FF431A403B
:10141000CB881A4302808B8883850B8803850A4B0F
:1014200098420BD0094B984208D00E4B984205D0F9
:101430000D4B984202D00D4B984201D10B7A038696
:101440000123838270470000002C014000340140DA
:101450000004004000080040000C00400010004064
:101460000014004000400140004401400048014099
:10147000FEB504460D461646B4F1804F0DD101214C
:101480000846FFF7ABFD012211469007FFF794FFD6
:10149000022201211C20FFF72BFE114884420DD1AE
:1014A00001210220FFF79AFD012211462046FFF795
:1014B00083FF022211461D20FFF71AFEADF80460DB
:1014C000ADF800500020ADF80600ADF80200694606
:1014D0002046FFF77BFF208840F001002080FEBD02
:1014E000000400402DE9F04705468A46164634467A
:1014F000E01C295CA01C285C41EA0027601D295CD7
:10150000201D285C41EA002031494860A01D84B2BA
:1015100007F0010008B300201AE02D494968C140D6
:1015200001F0010171B1012101EB40012144695C2D
:1015300004EB4002AA5C41EA022225490E3121F85F
:10154000102004E0002222490E3121F81020401C16
:101550001028E2DB04F1200084B2601C285C295DC5
:1015600040EA0128A01C84B207F0020010B3B8F1D1
:10157000000F1AD0601C285C295D40EA012000B2EF
:1015800013490881E01C295CA01C285C41EA00206A
:1015900000B20F494881601D295C201D285C41EA8A
:1015A000002000B20A49888104E00020084908812F
:1015B000488188810648FFF73DFC0648FEF7E2FDBA
:1015C00081464946034800F073F9BDE8F087000002
:1015D000380300201400002010B540F225511D48AA
:1015E00000F05AF801282ED11A4800F011F9C4B2BF
:1015F0001948B0F82003B0F5487F20DA1648B0F853
:10160000240315490C540846B0F82403401C4FF439
:10161000487190FBF1F201FB12000F49A1F824037D
:101620000846B0F82003401CA1F8200300204FF02A
:101630008041888401218807FFF7A1FE03E0012093
:10164000054981F8220340F22551024800F006F8CE
:1016500010BD000000380140A003002001F400721A
:10166000B2F5007F00D100BFCA430280704721B1AC
:10167000828942F40052828104E082894DF6FF7330
:101680001A40828170471AB1838A0B43838202E039
:10169000838A8B438382704770B5024600240023FF
:1016A0000025002040F66A16B14200D100BFC1F308
:1016B000421501F01F03012606FA03F3012D02D1A2
:1016C0009689334006E0022D02D1168A334001E0AC
:1016D000968A33400C12012606FA04F41688344028
:1016E00013B10CB1012000E0002070BDF0B503463D
:1016F000002400260025002040F66A17B94200D1D8
:1017000000BF1846C1F3421401F01F06012707FA73
:1017100006F5012C01D10C3004E0022C01D110306F
:1017200000E014301AB107682F43076002E0076831
:10173000AF430760F0BD00002DE9F04786B00546D5
:101740000E460024A24600BFA1460027B08900B182
:1017500000BF2F462C8A4CF6FF700440F0880443EB
:101760002C82AC894EF6F3100440B08831890843CE
:10177000718908430443AC81AC8A4FF6FF400440B2
:10178000B0890443AC8201A8FFF748FC1F48874298
:1017900002D1DDF810A001E0DDF80CA0A88900F46A
:1017A000004040B10AEBCA0000EB0A103168490062
:1017B000B0FBF1F807E00AEBCA0000EB0A10316851
:1017C0008900B0FBF1F86420B8FBF0F004012009B7
:1017D000642101FB1089A88900F4004040B1322047
:1017E00000EBC900B0FBF1F000F00700044308E093
:1017F000322000EB09106421B0FBF1F000F00F0083
:1018000004432C8106B0BDE8F08700000038014099
:1018100001468888C0F30800704700BFFEE700005B
:1018200030B50146002200232048B0F8200318B14B
:101830001E4890F8220308B9002030BD1B4890F8DC
:10184000280360B11948B0F82003184CB4F82A43B3
:10185000204483B20020154C84F8280302E013488A
:10186000B0F8203317E01148B0F826030F4C205C85
:1018700008702046B0F82603401C4FF4487490FBD3
:10188000F4F504FB1500094CA4F82603581E83B296
:10189000491C501C82B2002BE5D10020034CA4F857
:1018A000200384F822031046C7E70000A0030020AD
:1018B00070B506460D460F48007801280BD100BFD1
:1018C0004FF40050FFF72AF90028F9D04FF40050E8
:1018D000FFF764F802E0012006490870002403E0E5
:1018E000305D05490855641CAC42F9D3A8B2FFF736
:1018F0008BFA70BDA4010020CC06002070B586B024
:1019000004460D461646264884423CD101218803F0
:10191000FFF774FB01210520FFF770FB0295002003
:10192000ADF80C00ADF80E00ADF81000ADF81400E5
:101930000C20ADF8120018208DF807006015ADF8E6
:10194000040003208DF8060001A91648FFF71DF9D1
:1019500028208DF807002015ADF8040001A91148D2
:10196000FFF713F90E480C30008840F020000C49B6
:101970000C310880012200212520FFF7B9FB02A9C4
:101980002046FFF7D9FE012240F225510448FFF717
:10199000ADFE01210248FFF76AFE06B070BD0000EF
:1019A00000380140000801400FB4084B10B504A9ED
:1019B00002AA039800F0DEF8044602A9002000F015
:1019C00070FC204610BC5DF814FB0000A322000848
:1019D00002E008C8121F08C1002AFAD170477047F8
:1019E000002001E001C1121F002AFBD17047000056
:1019F0002DE9FF5F82B00021DDE90430020DDDF842
:101A000040B0034318D044F61050A2F2FF324243D4
:101A10001514119801281FD0A5EB0B00401C5FEA9C
:101A2000000A4FF000064E4FDFF83891B04650469E
:101A300015D5CAF1000413E0119801244AA3012826
:101A400001D16FEA0B010298119AC0E90031C0E997
:101A5000024206B0BDE8F09FCBF10000DFE704468C
:101A60000021404A491842EB0450CDE9001012E031
:101A7000E00707D032463B4640464946FEF739FC70
:101A80008046894632463B4610461946FEF731FCF1
:101A900006460F466410002CEAD1DDE90401DDE9B9
:101AA0000023BAF1000F06DAFEF723FC42464B464C
:101AB000FEF71FFC05E0FEF78EFC42464B46FEF7A4
:101AC0008AFC04460E460022284BFEF7F7FD03D899
:101AD0004FF0FF30014607E00022254B20463146FB
:101AE000FEF760FBFEF7D1FD102409E0002C0ADBB5
:101AF0000A220023FEF71AFD039B30321A55641E9A
:101B000050EA0102F2D1641C039AC4F11103144497
:101B1000119A012A03D0012208430DD10AE008439B
:101B200004D000204FF0110B119072E7A3EB0B05CE
:101B30006D1E0DE05B4504DD4FF0000205F101056F
:101B400004E003DA4FF00002A5F10105002AECD011
:101B500002981199C0E90231C0E9004579E7000017
:101B6000000014400000F03F300000000000F0438F
:101B70000000E03F2DE9FF4F95B09B4689460646A1
:101B800000250FE2252877D100242746F84A0121B5
:101B9000059400E0044316F8013F203B01FA03F0EE
:101BA0001042F7D130782A2811D06FF02F03307807
:101BB000A0F13002092A16D8059A44F0020402EB7B
:101BC000820203EB42021044761C0590EFE759F8BD
:101BD000042B0592002A03DA504244F40054059085
:101BE00044F00204761C30782E2816D116F8010F26
:101BF00044F004042A280DD06FF02F023078A0F1B1
:101C00003003092B09D807EB870302EB4303C718FE
:101C1000761CF3E759F8047B761C30786C280FD0DB
:101C200006DC4C2817D068280DD06A2814D104E0AF
:101C3000742810D07A280FD10DE044F400140AE083
:101C400044F4801401E044F440147278824202D1DA
:101C500004F58014761C761C307866280BD013DCD3
:101C6000582877D009DC002875D04528F6D04628BA
:101C7000F4D047281AD19DE118E0632835D06428B4
:101C800079D0652812D195E1702873D008DC6728D7
:101C9000F1D069286FD06E280DD06F2806D1B5E03D
:101CA00073282CD0752875D0782874D05A46179987
:101CB00090476D1C75E1C4F30250022809D0032837
:101CC0000DD0D9F8001004280DD00D6009F10409D9
:101CD00067E1D9F80010EA17C1E90052F6E7D9F830
:101CE00000100D80F2E70D70F0E719F8041B8DF875
:101CF000001000208DF80100EA46012003E059F8A9
:101D000004AB4FF0FF3061074FF0000102D40DE04B
:101D100008F101018846B9420FDA8045F8DB1AF86C
:101D200008100029F4D108E008F101018846814239
:101D3000FADB1AF808100029F6D105985B46A0EBEB
:101D4000080721463846179A00F094FA284400EB19
:101D5000080507E04DE029E10DE01AF8010B5A46AD
:101D600017999047B8F10108F7D25B4621463846EB
:101D7000179A13E142E00A220092C4F302524FF094
:101D8000000A022A08D059F804CB032A4FEAEC7162
:101D90000AD00DE029E02AE009F1070121F007024D
:101DA000F2E802C1914609E00FFA8CFC4FEAEC71AF
:101DB000042A03D14FFA8CFC4FEAEC71002907DAB0
:101DC0000A460021DCF1000C61EB02012D2202E049
:101DD000220504D52B228DF80420012203E0E2071E
:101DE00001D02022F7E7904659E00A2102E01022B4
:101DF0000DE010214FF0000A00910BE010224FF08F
:101E0000000A44F004040827009203E008224FF07F
:101E1000000A0092C4F30252022A05D059F804CBFA
:101E20000021032A08D009E009F1070121F0070287
:101E3000F2E802C1914605E01FFA8CFC042A01D1A8
:101E40000CF0FF0C4FF00008220728D5702806D0B0
:101E5000009B83F0100353EA0A0305D00EE04022F2
:101E60008DF80420012208E05CEA010206D030224D
:101E70008DF804208DF8050002229046009B83F027
:101E8000080353EA0A030AD15CEA010201D162079E
:101E900005D530228DF804204FF001087F1E582808
:101EA00004D034A003900EA802900DE036A0F9E70C
:101EB00053466046009AFEF739FB84460398825CDD
:101EC0000298401E029002705CEA0100F0D1029874
:101ED00006A9081A00F1200A600702D524F480340C
:101EE00000E00127574502DDA7EB0A0000E00020D3
:101EF00000EB0A01009005984144401A0590E00368
:101F000006D45B462146179A059800F0B3F90544BC
:101F1000002706E001A85A46C05D179990476D1C3E
:101F20007F1C4745F6DBE0030CD55B462146179A3C
:101F3000059800F09FF9054404E030205A461799AF
:101F400090476D1C0099481E00900029F5DC08E0C0
:101F5000029802995A460078491C029117999047B5
:101F60006D1CBAF10001AAF1010AF1DC65E1000083
:101F7000092801003031323334353637383961625F
:101F80006364656600000000303132333435363723
:101F900038394142434445460000000000F058F9FA
:101FA0000544761C307800287FF4ECAD19B0284643
:101FB000BDE8F08F620700D4062709F1070222F07E
:101FC000070CFCE80223E14603F000485FEA080C36
:101FD00002D00FF2702C0DE05FEA045C02D50FF224
:101FE000682C07E05FEAC47C02D00FF2602C01E0AD
:101FF000AFF2700C4FF0FF3823F00043CDF850C023
:1020000065280CD006DC452809D046281DD0472875
:102010003DD13DE0662818D067287ED138E0002108
:10202000112F01DB112000E0781CCDE9000106A989
:102030000EA8FFF7DDFCDDE90F010E9A03910021E8
:10204000009207F1010A04914DE04FF00040009723
:10205000CDE9011006A90EA8FFF7CAFCDDE90F02C1
:1020600003920E9B11990022DDF80CA000930492BC
:1020700011B9791C00EB010AB7EB0A0004D4C0F1D6
:10208000FF3007F1010A0490AAEB0700019044E039
:10209000012F00DA01270021112F01DD112000E0BE
:1020A0003846CDE9000106A90EA8FFF7A1FCDDE93D
:1020B0000F010E9A0391002104910092BA46210764
:1020C0000CD40399514500DA8A46BAF1010F05DDB7
:1020D000009AAAF10101515C302908D0B84202DA15
:1020E00010F1040F06DA0121CDE9011015E0AAF183
:1020F0000101E9E7002805DC049901440491AAEBF9
:10210000000102E0411C514500DD8A460499401A55
:10211000401C01904FF000400290200704D4019829
:10212000504501DBCDF8048000208DF84F00029867
:102130000DF14F07B0F1004F25D02B200E900298E3
:102140004FF0020800280CDA404202902D200E9039
:1021500007E00A210298FEF7D3F93031029007F820
:10216000011DB8F10001A8F10108F2DC0298002875
:10217000EFD1791E0E980870307800F0200040F002
:10218000450007F8020D12A8C01B00F107081498BB
:10219000007800B1012000EB0A01019801EBE07129
:1021A00005984144401A401E0590E00306D45B4662
:1021B0002146179A059800F05DF8054414980078B8
:1021C00018B15A46179990476D1CE00324D55B4619
:1021D0002146179A059800F04DF805441CE0049834
:1021E000002807DBDDE90301884203DD0098405C3D
:1021F000179901E0179930205A469047049805F145
:102200000105401C04900198401E019004D12E202D
:102210005A46179990476D1CBAF10001AAF1010ABC
:10222000DDDC05E017F8010B5A46179990476D1C45
:10223000B8F10001A8F10108F4DC5B462146179AC9
:102240000598ABE62D0000002B00000020000000E8
:102250002DE9F041044600251E461746880404D4A3
:1022600005E039462020B0476D1C641EF9D528468C
:10227000BDE8F0812DE9F041044600251E46904658
:10228000C80301D5302700E02027880404D505E0E5
:1022900041463846B0476D1C641EF9D52846BDE856
:1022A000F0810A68531C0B60107070470FB42DE961
:1022B000F04F87B0DDE91A432246DDE9166130466A
:1022C000FEF717F880468946DDE91C432246DDE922
:1022D00014613046FEF70DF8824642464B46FEF743
:1022E00002F8CDE90001DDE91C432246DDE9126177
:1022F0003046FDF7FEFF80468946DDE91843224659
:10230000DDE916613046FDF7F4FF824642464B4652
:10231000FDF7E9FFCDE90201DDE918432246DDE9D9
:1023200014613046FDF7E5FF80468946DDE91A4332
:102330002246DDE912613046FDF7DBFF8246424668
:102340004B46FDF7D0FFCDE90401182269461098ED
:10235000FDF7E8FE07B0BDE8F00F5DF814FB2DE9CE
:10236000F0478CB00446D4E90C532A46D4E90871EE
:102370003846FDF7BEFFCDE90401D4E90E532A46E5
:10238000D4E906713846FDF7B4FF8146DDE9042340
:10239000FDF7A9FFCDE90601D4E904532A46FDF76C
:1023A000A8FFCDE90A01D4E90C532A46D4E90A7101
:1023B0003846FDF79EFF81468A46D4E910532A46E7
:1023C000D4E906713846FDF794FF4A465346CDE9F5
:1023D0000001FDF788FFCDE90201D4E902532A4646
:1023E000FDF787FFCDE90601D4E90E532A46D4E96B
:1023F0000A713846FDF77DFF81468A46D4E91053BD
:102400002A46D4E908713846FDF773FF4A46534619
:10241000CDE90001FDF767FFCDE90201D4E90053E2
:102420002A46FDF766FFCDE90401DDE90623FDF745
:102430005AFFCDE90801DDE90A23FDF7B3FE0CB030
:10244000BDE8F0870FB42DE9FF5FDDE918432246B0
:10245000DDE912613046FDF74CFFCDE90201DDE90F
:1024600016432246DDE910613046FDF742FF804603
:102470008946DDE914432246DDE90E613046FDF769
:1024800038FF824642464B46FDF78CFECDE90001FF
:10249000DDE90223FDF786FE04B0BDE8F01F5DF81C
:1024A00014FB0000002448224FF4E1311B48FFF7E1
:1024B00025FAFEF777FC182240F60F614FF08040B6
:1024C000FEF7D6FF012240F60F611548FEF7D0FF58
:1024D00022E0144890F8220340B11348FFF7A0F916
:1024E00004461CB121461048FEF7DCFB0F4800886B
:1024F000B0F5966F10DD00200C490880094981F87D
:102500002203A1F82603A1F82403A1F820034FF425
:10251000C8710548FDF71FFEDBE7000000380140E9
:1025200000040040A0030020A8010020A601002014
:102530000FB5B5B03798042802D0002039B000BDDF
:10254000182204A83699FDF7EDFD3698D0E9092345
:10255000016AC06A8DE80E0003903698D0E9062320
:102560002EA800F0E7FB182204A83699FDF7DAFD43
:102570003698D0E90E31D0E91020CDE90031CDE90F
:1025800002203698D0E90C2328A800F0D3FB1822AB
:1025900004A83699FDF7C6FD3698D0E91523016DDC
:1025A000C06D8DE80E0003903698D0E9122322A862
:1025B00000F0C0FB182228A904A8FDF7B3FD30A83D
:1025C0000FC88DE80F00DDE92E231CA8FFF76EFE73
:1025D000182222A902A8FDF7A5FDDDE92001CDE919
:1025E00000011CA80FC8FFF72DFF21F00041CDE925
:1025F0001801DDE93A23FDF76BFF01D200209DE7CA
:10260000369903C9CDE918013699D1E90601CDE91A
:102610001601DDE91823FDF766FE359A03C23699E7
:10262000D1E90201CDE918013698D0E90812CDE9C7
:102630001612084617A90EC9FDF755FE359AC2E9CC
:1026400002013699D1E90401CDE91801369800F16B
:102650001801806A4969CDE91601DDE91823FDF703
:1026600042FE359AC2E90401369903C9CDE9180141
:102670003699D1E90C01CDE91601DDE91823FDF702
:1026800032FE359AC2E906013699D1E90201CDE957
:102690001801369800F13001806BC968CDE9160148
:1026A000DDE91823FDF71FFE359AC2E908013699C6
:1026B000D1E90401CDE91801369800F13001006C30
:1026C0004969CDE91601DDE91823FDF70CFE359ABD
:1026D000C2E90A01369903C9CDE918013698D0E953
:1026E00012120846CDE9160217A90EC9FDF7FBFD27
:1026F000359AC2E90C013699D1E90201CDE91801F8
:10270000369800F14801006DC968CDE91601DDE990
:102710001823FDF7E8FD359AC2E90E013699D1E993
:102720000401CDE91801369800F14801806D49692E
:10273000CDE91601DDE91823FDF7D5FD359AC2E98B
:1027400010013598FFF70BFECDE91A01DDE91A01FA
:1027500021F00041D84AD94BCDE91801FDF7B8FE68
:1027600001D20020EAE63699D1E90401CDE912014F
:102770003699D1E90401CDE91001DDE91223FDF715
:10278000B8FDCDE916013698D0E90A12CDE90E124E
:1027900000F11801806A4969CDE90C01DDE90E23D9
:1027A000FDF7A7FDCDE912013699D1E90201CDE986
:1027B0000A013699D1E90201CDE90801DDE90A23D0
:1027C000FDF797FDCDE90E01369800F11801006A7A
:1027D000C968CDE906013698D0E90812CDE904129E
:1027E000084605A90EC9FDF784FDCDE90A01369911
:1027F00003C9CDE90201369806C80846CDE90002B2
:1028000001A90EC9FDF775FDCDE906013699D1E99B
:102810000601CDE902013699D1E90601CDE90001B1
:10282000DDE90223FDF765FDCDE90401DDE90623BD
:10283000FDF759FDCDE90801DDE90A23FDF7B2FCFA
:10284000CDE90C01DDE90E23FDF74DFDCDE91001C9
:10285000DDE91223FDF7A6FCCDE91401DDE916231D
:10286000FDF741FD00224FF08043CDE91801FDF74F
:10287000B2FD359AC2E912013699D1E90401CDE9D8
:1028800012013698D0E90412CDE91012084611A9B8
:102890000EC9FDF72EFDCDE91601369800F1300185
:1028A000006C4969CDE90E013698D0E9101208464E
:1028B000CDE90C020DA90EC9FDF71BFDCDE91201F2
:1028C0003698D0E902120846CDE90A023698D0E9D6
:1028D00002120846CDE9080209A90EC9FDF709FD53
:1028E000CDE90E01369800F13001806BC968CDE961
:1028F0000601369800F13001806BC968CDE904010A
:10290000DDE90623FDF7F5FCCDE90A01369903C997
:10291000CDE90201369903C9CDE90001DDE90223C1
:10292000FDF7E7FCCDE906013699D1E90C01CDE9C7
:1029300002013699D1E90C01CDE90001DDE902235C
:10294000FDF7D7FCCDE90401DDE90623FDF7CBFC5B
:10295000CDE90801DDE90A23FDF724FCCDE90C01EE
:10296000DDE90E23FDF7BFFCCDE91001DDE91223FF
:10297000FDF718FCCDE91401DDE91623FDF7B3FCE2
:1029800000224FF08043CDE91801FDF724FD359A70
:10299000C2E914013699D1E90401CDE91201369852
:1029A000D0E904120846CDE9100211A90EC9FDF7BD
:1029B000A0FCCDE91601369800F14801806D496907
:1029C000CDE90E013698D0E91612CDE90C12084671
:1029D0000DA90EC9FDF78DFCCDE912013699D1E99B
:1029E0000201CDE90A013699D1E90201CDE90801D8
:1029F000DDE90A23FDF77DFCCDE90E01369800F1F3
:102A00004801006DC968CDE90601369800F148011A
:102A1000006DC968CDE90401DDE90623FDF769FC15
:102A2000CDE90A01369806C80846CDE90202369972
:102A300003C9CDE90001DDE90223FDF75AFCCDE928
:102A400006013698D0E912120846CDE902023698FE
:102A5000D0E912120846CDE9000201A90EC9FDF71E
:102A600048FCCDE90401DDE90623FDF73CFCCDE996
:102A70000801DDE90A23FDF795FBCDE90C01DDE94D
:102A80000E23FDF730FCCDE91001DDE91223FDF73F
:102A900089FBCDE91401DDE91623FDF724FC0022B2
:102AA0004FF08043CDE91801FDF795FC359AC2E956
:102AB0001601012042E500003A8C30E28E79453E55
:102AC0002DE9F74FD0B08B469246DAE90001CDE907
:102AD0000201DAE90001CDE90001DDE90223FDF799
:102AE00008FCCDE90601DAE90201CDE90201DAE9E3
:102AF0000201CDE90001DDE90223FDF7FAFBCDE992
:102B00000401DDE90623FDF7EEFB00224FF08043D0
:102B1000CDE90801FDF75FFCCDE90A01DBE912010F
:102B2000CDE90801DDE90A23FDF7DDFB4B914A9071
:102B3000DAE90001CDE90201DAE90001CDE900019D
:102B4000DDE90223FDF7D5FBCDE90601DAE9040151
:102B5000CDE90201DAE90401CDE90001DDE9022352
:102B6000FDF7C7FBCDE90401DDE90623FDF7BBFB5B
:102B700000224FF08043CDE90801FDF72CFCCDE9A0
:102B80000A01DBE91401CDE90801DDE90A23FDF7BB
:102B9000AAFB4D914C90DAE90001CDE90201DAE996
:102BA0000001CDE90001DDE90223FDF7A2FBCDE93B
:102BB0000601DAE90601CDE90201DAE90601CDE90B
:102BC0000001DDE90223FDF794FBCDE90401DDE915
:102BD0000623FDF788FB00224FF08043CDE9080172
:102BE000FDF7F9FBCDE90A01DBE91601CDE90801A2
:102BF000DDE90A23FDF777FB4F914E905846FFF72A
:102C0000AEFB04460D4600203AE0002135E000EB23
:102C100040020BEBC20202EBC102D2E9003200EB30
:102C2000400C0DF1E00E0EEBCC0C0CEBC10CCCE922
:102C3000003200EB40020BEBC20202EBC1030CCBF3
:102C400000EB400C0DF1980E0EEBCC0C0CEBC10C14
:102C5000CCE9002300EB40020BEBC20202EBC10205
:102C6000D2E9003200EB400C0DF1500E0EEBCC0C13
:102C70000CEBC10CCCE90032491C0329C7DB401C1A
:102C80000328C2DB002024E04AA901EBC00206CAE7
:102C900000EB40030DF1E00C0CEBC30306C34AA9A3
:102CA00001EBC001D1E9002100EB40030DF1980CCC
:102CB0000CEBC303C3E902214AA901EBC00206CA17
:102CC00000EB40030DF1500C0CEBC303C3E90412FD
:102CD000401C0328D8DB38A8FFF741FB06460F4607
:102CE00026A8FFF73CFB8046894614A8FFF737FB70
:102CF000CDE9120122462B4630463946FDF76BFBE3
:102D0000CDE90C0122462B4640464946FDF763FBC0
:102D1000CDE90E0122462B46DDE91201FDF75BFBF2
:102D2000CDE9100118220CA95098FDF7FBF953B01A
:102D3000BDE8F08F0FB42DE9F04186B00446DDE91F
:102D400014733A46DDE90E512846FDF7CCFACDE979
:102D50000001DDE916733A46DDE910512846FDF71A
:102D6000C2FACDE90201DDE918733A46DDE91251F4
:102D70002846FDF7B8FACDE9040118226946204635
:102D8000FDF7D0F906B0BDE8F0015DF814FB0000D6
:102D900000C1814001C0804101C0804100C181402B
:102DA00001C0804100C1814000C1814001C080411B
:102DB00001C0804100C1814000C1814001C080410B
:102DC00000C1814001C0804101C0804100C18140FB
:102DD00001C0804100C1814000C1814001C08041EB
:102DE00000C1814001C0804101C0804100C18140DB
:102DF00000C1814001C0804101C0804100C18140CB
:102E000001C0804100C1814000C1814001C08041BA
:102E100001C0804100C1814000C1814001C08041AA
:102E200000C1814001C0804101C0804100C181409A
:102E300000C1814001C0804101C0804100C181408A
:102E400001C0804100C1814000C1814001C080417A
:102E500000C1814001C0804101C0804100C181406A
:102E600001C0804100C1814000C1814001C080415A
:102E700001C0804100C1814000C1814001C080414A
:102E800000C1814001C0804101C0804100C181403A
:102E900000C0C101C30302C2C60607C705C5C404FA
:102EA000CC0C0DCD0FCFCE0E0ACACB0BC90908C86A
:102EB000D81819D91BDBDA1A1EDEDF1FDD1D1CDC5A
:102EC00014D4D515D71716D6D21213D311D1D010CA
:102ED000F03031F133F3F23236F6F737F53534F4BA
:102EE0003CFCFD3DFF3F3EFEFA3A3BFB39F9F8382A
:102EF00028E8E929EB2B2AEAEE2E2FEF2DEDEC2C1A
:102F0000E42425E527E7E62622E2E323E12120E089
:102F1000A06061A163A3A26266A6A767A56564A479
:102F20006CACAD6DAF6F6EAEAA6A6BAB69A9A868E9
:102F300078B8B979BB7B7ABABE7E7FBF7DBDBC7CD9
:102F4000B47475B577B7B67672B2B373B17170B049
:102F50005090915193535292965657975595945439
:102F60009C5C5D9D5F9F9E5E5A9A9B5B99595898A9
:102F7000884849894B8B8A4A4E8E8F4F8D4D4C8C99
:102F80004484854587474686824243834181804009
:102F90000000000000000000000000000000000031
:102FA0000000000000106440E17A14AE476D7640E6
:102FB000C3F5285C8FC205C09A99999999796040A8
:102FC00000000000001075409A999999993D85403C
:102FD000000000000020684000000000005070C0A9
:102FE00033333333336781400000000000A0654075
:102FF0001030000800000020A80100003007000881
:1030000028300008A8010020480C0000E019000842
:10301000510012FF0102030401020304060708091C
:083020000204060830019600CD
:04000005080000ED02
:00000001FF
